{"abi":[{"type":"constructor","inputs":[{"name":"_implementation","type":"address","internalType":"address"}],"stateMutability":"nonpayable"},{"type":"function","name":"createEscrow","inputs":[{"name":"jobId","type":"bytes32","internalType":"bytes32"},{"name":"buyer","type":"address","internalType":"address"},{"name":"seller","type":"address","internalType":"address"},{"name":"arbiter","type":"address","internalType":"address"},{"name":"feeRecipient","type":"address","internalType":"address"},{"name":"feeBps","type":"uint256","internalType":"uint256"},{"name":"paymentToken","type":"address","internalType":"address"},{"name":"amountWei","type":"uint256","internalType":"uint256"},{"name":"deadline","type":"uint64","internalType":"uint64"},{"name":"buyerFeeBps","type":"uint256","internalType":"uint256"},{"name":"vendorFeeBps","type":"uint256","internalType":"uint256"},{"name":"disputeFeeBps","type":"uint256","internalType":"uint256"},{"name":"rewardRateBps","type":"uint256","internalType":"uint256"}],"outputs":[{"name":"escrow","type":"address","internalType":"address"}],"stateMutability":"nonpayable"},{"type":"function","name":"createEscrowDeterministic","inputs":[{"name":"jobId","type":"bytes32","internalType":"bytes32"},{"name":"buyer","type":"address","internalType":"address"},{"name":"seller","type":"address","internalType":"address"},{"name":"arbiter","type":"address","internalType":"address"},{"name":"feeRecipient","type":"address","internalType":"address"},{"name":"feeBps","type":"uint256","internalType":"uint256"},{"name":"paymentToken","type":"address","internalType":"address"},{"name":"amountWei","type":"uint256","internalType":"uint256"},{"name":"deadline","type":"uint64","internalType":"uint64"},{"name":"buyerFeeBps","type":"uint256","internalType":"uint256"},{"name":"vendorFeeBps","type":"uint256","internalType":"uint256"},{"name":"disputeFeeBps","type":"uint256","internalType":"uint256"},{"name":"rewardRateBps","type":"uint256","internalType":"uint256"},{"name":"salt","type":"bytes32","internalType":"bytes32"}],"outputs":[{"name":"escrow","type":"address","internalType":"address"}],"stateMutability":"nonpayable"},{"type":"function","name":"implementation","inputs":[],"outputs":[{"name":"","type":"address","internalType":"address"}],"stateMutability":"view"},{"type":"function","name":"isEscrowCreated","inputs":[{"name":"","type":"address","internalType":"address"}],"outputs":[{"name":"","type":"bool","internalType":"bool"}],"stateMutability":"view"},{"type":"function","name":"owner","inputs":[],"outputs":[{"name":"","type":"address","internalType":"address"}],"stateMutability":"view"},{"type":"function","name":"predictEscrow","inputs":[{"name":"salt","type":"bytes32","internalType":"bytes32"}],"outputs":[{"name":"predicted","type":"address","internalType":"address"}],"stateMutability":"view"},{"type":"function","name":"rewardDistributor","inputs":[],"outputs":[{"name":"","type":"address","internalType":"address"}],"stateMutability":"view"},{"type":"function","name":"rewardRatePer1e18","inputs":[],"outputs":[{"name":"","type":"uint256","internalType":"uint256"}],"stateMutability":"view"},{"type":"function","name":"rewardRatePer1e18ForStablecoin","inputs":[],"outputs":[{"name":"","type":"uint256","internalType":"uint256"}],"stateMutability":"view"},{"type":"function","name":"rewardToken","inputs":[],"outputs":[{"name":"","type":"address","internalType":"address"}],"stateMutability":"view"},{"type":"function","name":"setRewardDistributor","inputs":[{"name":"_rewardDistributor","type":"address","internalType":"address"}],"outputs":[],"stateMutability":"nonpayable"},{"type":"function","name":"setRewardRatePer1e18","inputs":[{"name":"_rewardRatePer1e18","type":"uint256","internalType":"uint256"}],"outputs":[],"stateMutability":"nonpayable"},{"type":"function","name":"setRewardRatePer1e18ForStablecoinWithDivisor","inputs":[{"name":"divisor","type":"uint256","internalType":"uint256"}],"outputs":[],"stateMutability":"nonpayable"},{"type":"function","name":"setRewardToken","inputs":[{"name":"_rewardToken","type":"address","internalType":"address"}],"outputs":[],"stateMutability":"nonpayable"},{"type":"function","name":"transferOwnership","inputs":[{"name":"newOwner","type":"address","internalType":"address"}],"outputs":[],"stateMutability":"nonpayable"},{"type":"event","name":"EscrowCreated","inputs":[{"name":"jobId","type":"bytes32","indexed":true,"internalType":"bytes32"},{"name":"escrow","type":"address","indexed":true,"internalType":"address"},{"name":"buyer","type":"address","indexed":true,"internalType":"address"},{"name":"seller","type":"address","indexed":false,"internalType":"address"},{"name":"arbiter","type":"address","indexed":false,"internalType":"address"},{"name":"feeRecipient","type":"address","indexed":false,"internalType":"address"},{"name":"feeBps","type":"uint256","indexed":false,"internalType":"uint256"},{"name":"paymentToken","type":"address","indexed":false,"internalType":"address"},{"name":"amountWei","type":"uint256","indexed":false,"internalType":"uint256"},{"name":"deterministic","type":"bool","indexed":false,"internalType":"bool"},{"name":"deadline","type":"uint64","indexed":false,"internalType":"uint64"},{"name":"buyerFeeBps","type":"uint256","indexed":false,"internalType":"uint256"},{"name":"vendorFeeBps","type":"uint256","indexed":false,"internalType":"uint256"},{"name":"disputeFeeBps","type":"uint256","indexed":false,"internalType":"uint256"},{"name":"rewardRateBps","type":"uint256","indexed":false,"internalType":"uint256"}],"anonymous":false},{"type":"event","name":"OwnershipTransferred","inputs":[{"name":"previousOwner","type":"address","indexed":true,"internalType":"address"},{"name":"newOwner","type":"address","indexed":true,"internalType":"address"}],"anonymous":false},{"type":"event","name":"RewardDistributorSet","inputs":[{"name":"rewardDistributor","type":"address","indexed":true,"internalType":"address"}],"anonymous":false},{"type":"event","name":"RewardRateForStablecoinSet","inputs":[{"name":"rewardRatePer1e18ForStablecoin","type":"uint256","indexed":false,"internalType":"uint256"}],"anonymous":false},{"type":"event","name":"RewardRateSet","inputs":[{"name":"rewardRatePer1e18","type":"uint256","indexed":false,"internalType":"uint256"}],"anonymous":false},{"type":"event","name":"RewardTokenSet","inputs":[{"name":"rewardToken","type":"address","indexed":true,"internalType":"address"}],"anonymous":false},{"type":"error","name":"FailedDeployment","inputs":[]},{"type":"error","name":"InsufficientBalance","inputs":[{"name":"balance","type":"uint256","internalType":"uint256"},{"name":"needed","type":"uint256","internalType":"uint256"}]},{"type":"error","name":"NotOwner","inputs":[]}],"bytecode":{"object":"0x60a0346100dc57601f610d3d38819003918201601f19168301916001600160401b038311848410176100e1578084926020946040528339810103126100dc57516001600160a01b0381168082036100dc571561009757608052600080546001600160a01b03191633179055604051610c4590816100f8823960805181818161039e01528181610431015281816106d3015261077f0152f35b60405162461bcd60e51b815260206004820152601360248201527f7a65726f20696d706c656d656e746174696f6e000000000000000000000000006044820152606490fd5b600080fd5b634e487b7160e01b600052604160045260246000fdfe608080604052600436101561001357600080fd5b600090813560e01c9081630e3e929314610a27575080631f7cb13b146109ce57806320a7e36314610739578063290d3ada1461069e578063346a7aa7146103eb5780634f3c01dc146103cd5780635c60da1b146103885780637ec81d081461036a5780638aee8127146102fb5780638da5cb5b146102d4578063a1809b9514610265578063acc2166a1461023c578063ec3243cd146101a5578063f2fde38b146100f15763f7c618c1146100c657600080fd5b346100ee57806003193601126100ee576002546040516001600160a01b039091168152602090f35b80fd5b50346100ee5760203660031901126100ee5761010b610a67565b8154906001600160a01b038083169133839003610193571691821561015f576001600160a01b031916821783557f8be0079c531659141344cd1fd0a4f28419497f9722a3daafe3b4186f6b6457e08380a380f35b60405162461bcd60e51b815260206004820152600c60248201526b7a65726f206164647265737360a01b6044820152606490fd5b6040516330cd747160e01b8152600490fd5b50346100ee5760203660031901126100ee578054600435906001600160a01b031633036101935780156102085760207f76d9121fc9f18480a68829cc3984931ef7ce40483c279994ed21ff58fe7dded9916003540480600455604051908152a180f35b60405162461bcd60e51b815260206004820152600c60248201526b3d32b937903234bb34b9b7b960a11b6044820152606490fd5b50346100ee57806003193601126100ee576001546040516001600160a01b039091168152602090f35b50346100ee5760203660031901126100ee5761027f610a67565b81546001600160a01b039190821633036101935716806bffffffffffffffffffffffff60a01b60015416176001557f075c02c513a415bd4ff5976f8aa6fc5767d2183daca9ec00ab71ce78e8bf81588280a280f35b50346100ee57806003193601126100ee57546040516001600160a01b039091168152602090f35b50346100ee5760203660031901126100ee57610315610a67565b81546001600160a01b039190821633036101935716806bffffffffffffffffffffffff60a01b60025416176002557f2d6b04df9b7d358407d1a014f1114b064add34c19d63d395db155a7e533e967a8280a280f35b50346100ee57806003193601126100ee576020600354604051908152f35b50346100ee57806003193601126100ee576040517f00000000000000000000000000000000000000000000000000000000000000006001600160a01b03168152602090f35b50346100ee57806003193601126100ee576020600454604051908152f35b50346100ee576101a03660031901126100ee57610406610a82565b61040e610a98565b610416610aae565b9161041f610ac4565b610427610ada565b61042f610af0565b7f0000000000000000000000000000000000000000000000000000000000000000608881901c62ffffff16763d602d80600a3d3981f3363d3d373d3d3d363d7300000017885260781b6e5af43d82803e903d91602b57fd5bf317602052916001600160a01b036037600989f01695861561068c576001600160a01b038316610684576003545b60015460025460405192916001600160a01b0391821691166104d684610b08565b6001600160a01b0389811685528a811660208601528581166040860152868116606086015260a4356080860152871660a085015260e43560c085015267ffffffffffffffff881660e0850152610124356101008501526101443561012085015261016435610140850152610184356101608501526101808401526101a08301526101c082015288883b156100ee5760405163ddd0df6d60e01b815291829081906105839060048301610b4f565b0381838c5af1801561067957610661575b5086885260056020908152604098899020805460ff1916600117905588516001600160a01b039788168152918716828201529186169781019790975260a4356060880152908416608087015260e43560a0870152600060c087015267ffffffffffffffff90911660e086015261012435610100860152610144356101208601526101643561014086015261018435610160860152939116908290600435907f3526cfc798ab7e9e6471c8b7b0e0c90ecf1f141436bd7def1ea46ffb2d9213fa9061018090a4604051908152f35b61066b8991610b3b565b6106755738610594565b8780fd5b6040513d8b823e3d90fd5b6004546104b5565b60405163b06ebf3d60e01b8152600490fd5b50346100ee5760203660031901126100ee5760206040513060388201526f5af43d82803e903d91602b57fd5bf3ff60248201527f00000000000000000000000000000000000000000000000000000000000000006014820152733d602d80600a3d3981f3363d3d373d3d3d363d73815260043560588201526037600c82012060788201526055604360018060a01b0392012016604051908152f35b50346100ee576101c03660031901126100ee57610754610a82565b61075c610a98565b610764610aae565b9161076d610ac4565b610775610ada565b61077d610af0565b7f0000000000000000000000000000000000000000000000000000000000000000608881901c62ffffff16763d602d80600a3d3981f3363d3d373d3d3d363d7300000017885260781b6e5af43d82803e903d91602b57fd5bf317602052916001600160a01b036101a435603760098af51695861561068c576001600160a01b0383166109c6576003545b60015460025460405192916001600160a01b03918216911661082884610b08565b6001600160a01b0389811685528a811660208601528581166040860152868116606086015260a4356080860152871660a085015260e43560c085015267ffffffffffffffff881660e0850152610124356101008501526101443561012085015261016435610140850152610184356101608501526101808401526101a08301526101c082015288883b156100ee5760405163ddd0df6d60e01b815291829081906108d59060048301610b4f565b0381838c5af180156106795791604060209a8a9897959367ffffffffffffffff97956109b7575b5088815260058c5220805460ff19166001908117909155604080516001600160a01b039a8b168152928a16838d01529289169282019290925260a4356060820152918716608083015260e43560a083015260c0820152911660e082015261012435610100820152610144356101208201526101643561014082015261018435610160820152921691600435907f3526cfc798ab7e9e6471c8b7b0e0c90ecf1f141436bd7def1ea46ffb2d9213fa9061018090a4604051908152f35b6109c090610b3b565b386108fc565b600454610807565b50346100ee5760203660031901126100ee578054600435906001600160a01b03163303610193576020817f8cbfafc8e0d9c5c81401c4b9c6e7d201198adc7eb8f8f1556c195ecd4c0a0e7b92600355604051908152a180f35b905034610a63576020366003190112610a635760209160ff906040906001600160a01b03610a53610a67565b1681526005855220541615158152f35b5080fd5b600435906001600160a01b0382168203610a7d57565b600080fd5b602435906001600160a01b0382168203610a7d57565b604435906001600160a01b0382168203610a7d57565b606435906001600160a01b0382168203610a7d57565b608435906001600160a01b0382168203610a7d57565b60c435906001600160a01b0382168203610a7d57565b610104359067ffffffffffffffff82168203610a7d57565b6101e0810190811067ffffffffffffffff821117610b2557604052565b634e487b7160e01b600052604160045260246000fd5b67ffffffffffffffff8111610b2557604052565b9190916101e081019260018060a01b03808251168352806020830151166020840152806040830151166040840152806060830151166060840152608082015160808401528060a08301511660a084015260c082015160c084015267ffffffffffffffff60e08301511660e08401526101008083015190840152610120808301519084015261014080830151908401526101608083015190840152610180818184015116908401526101a0908183015116908301526101c08091015191015256fea2646970667358221220b003c5ce6393f6e11faedf8039bb63642875c122c7532ac2e5bc934710501f0a64736f6c63430008180033","linkReferences":{}},"methodIdentifiers":{"createEscrow(bytes32,address,address,address,address,uint256,address,uint256,uint64,uint256,uint256,uint256,uint256)":"346a7aa7","createEscrowDeterministic(bytes32,address,address,address,address,uint256,address,uint256,uint64,uint256,uint256,uint256,uint256,bytes32)":"20a7e363","implementation()":"5c60da1b","isEscrowCreated(address)":"0e3e9293","owner()":"8da5cb5b","predictEscrow(bytes32)":"290d3ada","rewardDistributor()":"acc2166a","rewardRatePer1e18()":"7ec81d08","rewardRatePer1e18ForStablecoin()":"4f3c01dc","rewardToken()":"f7c618c1","setRewardDistributor(address)":"a1809b95","setRewardRatePer1e18(uint256)":"1f7cb13b","setRewardRatePer1e18ForStablecoinWithDivisor(uint256)":"ec3243cd","setRewardToken(address)":"8aee8127","transferOwnership(address)":"f2fde38b"},"id":39}