{"abi":[{"type":"constructor","inputs":[],"stateMutability":"nonpayable"},{"type":"function","name":"approve","inputs":[{"name":"_cid","type":"string","internalType":"string"}],"outputs":[],"stateMutability":"nonpayable"},{"type":"function","name":"deliver","inputs":[{"name":"_cid","type":"string","internalType":"string"},{"name":"_contentHash","type":"bytes32","internalType":"bytes32"}],"outputs":[],"stateMutability":"nonpayable"},{"type":"function","name":"escrowInfo","inputs":[],"outputs":[{"name":"buyer","type":"address","internalType":"address"},{"name":"vendor","type":"address","internalType":"address"},{"name":"arbiter","type":"address","internalType":"address"},{"name":"feeRecipient","type":"address","internalType":"address"},{"name":"paymentToken","type":"address","internalType":"address"},{"name":"rewardToken","type":"address","internalType":"address"},{"name":"rewardRatePer1e18","type":"uint256","internalType":"uint256"},{"name":"amount","type":"uint256","internalType":"uint256"},{"name":"buyerFeeReserve","type":"uint256","internalType":"uint256"},{"name":"disputeFeeAmount","type":"uint256","internalType":"uint256"},{"name":"buyerFeeBps","type":"uint256","internalType":"uint256"},{"name":"vendorFeeBps","type":"uint256","internalType":"uint256"},{"name":"disputeFeeBps","type":"uint256","internalType":"uint256"},{"name":"rewardRateBps","type":"uint256","internalType":"uint256"},{"name":"createdAt","type":"uint64","internalType":"uint64"},{"name":"fundedAt","type":"uint64","internalType":"uint64"},{"name":"deadline","type":"uint64","internalType":"uint64"},{"name":"disputeFeeDeadline","type":"uint64","internalType":"uint64"},{"name":"disputeInitiator","type":"address","internalType":"address"},{"name":"buyerPaidDisputeFee","type":"bool","internalType":"bool"},{"name":"vendorPaidDisputeFee","type":"bool","internalType":"bool"},{"name":"cid","type":"string","internalType":"string"},{"name":"contentHash","type":"bytes32","internalType":"bytes32"},{"name":"proposedCID","type":"string","internalType":"string"},{"name":"proposedContentHash","type":"bytes32","internalType":"bytes32"},{"name":"buyerApproved","type":"bool","internalType":"bool"},{"name":"vendorApproved","type":"bool","internalType":"bool"},{"name":"state","type":"uint8","internalType":"enum Escrow.State"}],"stateMutability":"view"},{"type":"function","name":"fund","inputs":[],"outputs":[],"stateMutability":"payable"},{"type":"function","name":"getAllInfo","inputs":[],"outputs":[{"name":"","type":"tuple","internalType":"struct Escrow.EscrowInfo","components":[{"name":"buyer","type":"address","internalType":"address"},{"name":"vendor","type":"address","internalType":"address"},{"name":"arbiter","type":"address","internalType":"address"},{"name":"feeRecipient","type":"address","internalType":"address"},{"name":"paymentToken","type":"address","internalType":"address"},{"name":"rewardToken","type":"address","internalType":"address"},{"name":"rewardRatePer1e18","type":"uint256","internalType":"uint256"},{"name":"amount","type":"uint256","internalType":"uint256"},{"name":"buyerFeeReserve","type":"uint256","internalType":"uint256"},{"name":"disputeFeeAmount","type":"uint256","internalType":"uint256"},{"name":"buyerFeeBps","type":"uint256","internalType":"uint256"},{"name":"vendorFeeBps","type":"uint256","internalType":"uint256"},{"name":"disputeFeeBps","type":"uint256","internalType":"uint256"},{"name":"rewardRateBps","type":"uint256","internalType":"uint256"},{"name":"createdAt","type":"uint64","internalType":"uint64"},{"name":"fundedAt","type":"uint64","internalType":"uint64"},{"name":"deadline","type":"uint64","internalType":"uint64"},{"name":"disputeFeeDeadline","type":"uint64","internalType":"uint64"},{"name":"disputeInitiator","type":"address","internalType":"address"},{"name":"buyerPaidDisputeFee","type":"bool","internalType":"bool"},{"name":"vendorPaidDisputeFee","type":"bool","internalType":"bool"},{"name":"cid","type":"string","internalType":"string"},{"name":"contentHash","type":"bytes32","internalType":"bytes32"},{"name":"proposedCID","type":"string","internalType":"string"},{"name":"proposedContentHash","type":"bytes32","internalType":"bytes32"},{"name":"buyerApproved","type":"bool","internalType":"bool"},{"name":"vendorApproved","type":"bool","internalType":"bool"},{"name":"state","type":"uint8","internalType":"enum Escrow.State"}]}],"stateMutability":"view"},{"type":"function","name":"getState","inputs":[],"outputs":[{"name":"","type":"uint256","internalType":"uint256"}],"stateMutability":"view"},{"type":"function","name":"initialize","inputs":[{"name":"params","type":"tuple","internalType":"struct Escrow.InitParams","components":[{"name":"buyer","type":"address","internalType":"address"},{"name":"seller","type":"address","internalType":"address"},{"name":"arbiter","type":"address","internalType":"address"},{"name":"feeRecipient","type":"address","internalType":"address"},{"name":"feeBps","type":"uint256","internalType":"uint256"},{"name":"paymentToken","type":"address","internalType":"address"},{"name":"amountWei","type":"uint256","internalType":"uint256"},{"name":"deadline","type":"uint64","internalType":"uint64"},{"name":"buyerFeeBps","type":"uint256","internalType":"uint256"},{"name":"vendorFeeBps","type":"uint256","internalType":"uint256"},{"name":"disputeFeeBps","type":"uint256","internalType":"uint256"},{"name":"rewardRateBps","type":"uint256","internalType":"uint256"},{"name":"rewardDistributor","type":"address","internalType":"address"},{"name":"rewardToken","type":"address","internalType":"address"},{"name":"rewardRatePer1e18","type":"uint256","internalType":"uint256"}]}],"outputs":[],"stateMutability":"nonpayable"},{"type":"function","name":"initiateDispute","inputs":[],"outputs":[],"stateMutability":"payable"},{"type":"function","name":"isReleasable","inputs":[],"outputs":[{"name":"","type":"bool","internalType":"bool"}],"stateMutability":"view"},{"type":"function","name":"owner","inputs":[],"outputs":[{"name":"","type":"address","internalType":"address"}],"stateMutability":"view"},{"type":"function","name":"participants","inputs":[],"outputs":[{"name":"","type":"address","internalType":"address"},{"name":"","type":"address","internalType":"address"},{"name":"","type":"address","internalType":"address"},{"name":"","type":"address","internalType":"address"}],"stateMutability":"view"},{"type":"function","name":"payDisputeFee","inputs":[],"outputs":[],"stateMutability":"payable"},{"type":"function","name":"renounceOwnership","inputs":[],"outputs":[],"stateMutability":"nonpayable"},{"type":"function","name":"resolveDisputeByDefault","inputs":[],"outputs":[],"stateMutability":"nonpayable"},{"type":"function","name":"resolveToBuyer","inputs":[],"outputs":[],"stateMutability":"nonpayable"},{"type":"function","name":"resolveToVendor","inputs":[],"outputs":[],"stateMutability":"nonpayable"},{"type":"function","name":"rewardDistributor","inputs":[],"outputs":[{"name":"","type":"address","internalType":"address"}],"stateMutability":"view"},{"type":"function","name":"setRewardDistributor","inputs":[{"name":"_distributor","type":"address","internalType":"address"}],"outputs":[],"stateMutability":"nonpayable"},{"type":"function","name":"setRewardRatePer1e18","inputs":[{"name":"_rate","type":"uint256","internalType":"uint256"}],"outputs":[],"stateMutability":"nonpayable"},{"type":"function","name":"setRewardToken","inputs":[{"name":"_rewardToken","type":"address","internalType":"address"}],"outputs":[],"stateMutability":"nonpayable"},{"type":"function","name":"transferOwnership","inputs":[{"name":"newOwner","type":"address","internalType":"address"}],"outputs":[],"stateMutability":"nonpayable"},{"type":"function","name":"withdraw","inputs":[],"outputs":[],"stateMutability":"nonpayable"},{"type":"event","name":"Approved","inputs":[{"name":"buyer","type":"address","indexed":true,"internalType":"address"},{"name":"cid","type":"string","indexed":false,"internalType":"string"}],"anonymous":false},{"type":"event","name":"Delivered","inputs":[{"name":"vendor","type":"address","indexed":true,"internalType":"address"},{"name":"cid","type":"string","indexed":false,"internalType":"string"},{"name":"contentHash","type":"bytes32","indexed":false,"internalType":"bytes32"}],"anonymous":false},{"type":"event","name":"DisputeFeePaid","inputs":[{"name":"payer","type":"address","indexed":true,"internalType":"address"},{"name":"amount","type":"uint256","indexed":false,"internalType":"uint256"}],"anonymous":false},{"type":"event","name":"DisputeInitiated","inputs":[{"name":"initiator","type":"address","indexed":true,"internalType":"address"},{"name":"feeAmount","type":"uint256","indexed":false,"internalType":"uint256"},{"name":"deadline","type":"uint64","indexed":false,"internalType":"uint64"}],"anonymous":false},{"type":"event","name":"DisputeResolvedByDefault","inputs":[{"name":"winner","type":"address","indexed":true,"internalType":"address"},{"name":"reason","type":"string","indexed":false,"internalType":"string"}],"anonymous":false},{"type":"event","name":"FeePaid","inputs":[{"name":"to","type":"address","indexed":true,"internalType":"address"},{"name":"amount","type":"uint256","indexed":false,"internalType":"uint256"},{"name":"reason","type":"string","indexed":false,"internalType":"string"}],"anonymous":false},{"type":"event","name":"Funded","inputs":[{"name":"buyer","type":"address","indexed":true,"internalType":"address"},{"name":"amount","type":"uint256","indexed":false,"internalType":"uint256"},{"name":"buyerFee","type":"uint256","indexed":false,"internalType":"uint256"}],"anonymous":false},{"type":"event","name":"Initialized","inputs":[{"name":"buyer","type":"address","indexed":true,"internalType":"address"},{"name":"seller","type":"address","indexed":true,"internalType":"address"},{"name":"arbiter","type":"address","indexed":true,"internalType":"address"},{"name":"feeRecipient","type":"address","indexed":false,"internalType":"address"},{"name":"feeBps","type":"uint256","indexed":false,"internalType":"uint256"},{"name":"paymentToken","type":"address","indexed":false,"internalType":"address"},{"name":"rewardToken","type":"address","indexed":false,"internalType":"address"},{"name":"rewardRatePer1e18","type":"uint256","indexed":false,"internalType":"uint256"},{"name":"amountWei","type":"uint256","indexed":false,"internalType":"uint256"},{"name":"deadline","type":"uint64","indexed":false,"internalType":"uint64"}],"anonymous":false},{"type":"event","name":"OwnershipTransferred","inputs":[{"name":"previousOwner","type":"address","indexed":true,"internalType":"address"},{"name":"newOwner","type":"address","indexed":true,"internalType":"address"}],"anonymous":false},{"type":"event","name":"Refunded","inputs":[{"name":"to","type":"address","indexed":true,"internalType":"address"},{"name":"amount","type":"uint256","indexed":false,"internalType":"uint256"}],"anonymous":false},{"type":"event","name":"ResolvedToBuyer","inputs":[{"name":"arbiter","type":"address","indexed":true,"internalType":"address"},{"name":"amount","type":"uint256","indexed":false,"internalType":"uint256"}],"anonymous":false},{"type":"event","name":"ResolvedToVendor","inputs":[{"name":"arbiter","type":"address","indexed":true,"internalType":"address"},{"name":"amount","type":"uint256","indexed":false,"internalType":"uint256"}],"anonymous":false},{"type":"event","name":"ResultFinalized","inputs":[{"name":"cid","type":"string","indexed":false,"internalType":"string"},{"name":"contentHash","type":"bytes32","indexed":false,"internalType":"bytes32"}],"anonymous":false},{"type":"event","name":"RewardPaid","inputs":[{"name":"to","type":"address","indexed":true,"internalType":"address"},{"name":"amount","type":"uint256","indexed":false,"internalType":"uint256"},{"name":"reason","type":"string","indexed":false,"internalType":"string"}],"anonymous":false},{"type":"event","name":"RewardSkipped","inputs":[{"name":"to","type":"address","indexed":true,"internalType":"address"},{"name":"reason","type":"string","indexed":false,"internalType":"string"}],"anonymous":false},{"type":"event","name":"Withdrawn","inputs":[{"name":"to","type":"address","indexed":true,"internalType":"address"},{"name":"amount","type":"uint256","indexed":false,"internalType":"uint256"}],"anonymous":false},{"type":"error","name":"AlreadyInitialized","inputs":[]},{"type":"error","name":"BadState","inputs":[]},{"type":"error","name":"BadValue","inputs":[]},{"type":"error","name":"BothPartiesNotPaid","inputs":[]},{"type":"error","name":"CIDMismatch","inputs":[]},{"type":"error","name":"DeadlineNotReached","inputs":[]},{"type":"error","name":"DisputeFeeAlreadyPaid","inputs":[]},{"type":"error","name":"DisputeFeeDeadlineNotPassed","inputs":[]},{"type":"error","name":"DisputeFeeDeadlinePassed","inputs":[]},{"type":"error","name":"InsufficientDisputeFee","inputs":[]},{"type":"error","name":"NoArbiter","inputs":[]},{"type":"error","name":"OnlyBuyer","inputs":[]},{"type":"error","name":"OnlyParticipant","inputs":[]},{"type":"error","name":"OnlyVendor","inputs":[]},{"type":"error","name":"OwnableInvalidOwner","inputs":[{"name":"owner","type":"address","internalType":"address"}]},{"type":"error","name":"OwnableUnauthorizedAccount","inputs":[{"name":"account","type":"address","internalType":"address"}]},{"type":"error","name":"ReentrancyGuardReentrantCall","inputs":[]},{"type":"error","name":"SafeERC20FailedOperation","inputs":[{"name":"token","type":"address","internalType":"address"}]}],"bytecode":{"object":"0x60808060405234610080576000805460016001600160a01b0319821681178355916001600160a01b03909116907f8be0079c531659141344cd1fd0a4f28419497f9722a3daafe3b4186f6b6457e09080a360017f9b779b17422d0df92223018b32b4d1fa46e071723d6817e2486d003becc55f0055612e4e90816100868239f35b600080fdfe6101c0604052600436101561001357600080fd5b60003560e01c8063102df91d146125eb5780631865c57d146125bd5780631f7cb13b1461259c578063394ff3eb146124595780633ccfd60b14611d6e5780634acc296f14611b6a5780636c4470fb14611b22578063715018a614611ac95780638aee812714611a835780638da5cb5b14611a5a578063a1809b9514611a07578063ac759f161461177e578063acc2166a14611751578063ad9bdebb1461170d578063b18e15bd1461123d578063b60d428814611095578063b67b716314610f05578063ddd0df6d14610ab7578063ed60e20b146107a2578063f2fde38b1461074c578063f3d25904146103bb5763fe961ae21461010f57600080fd5b346103b65760403660031901126103b6576001600160401b036004358181116103b657610140903690600401612856565b600254602435939291906001600160a01b0390811633036103a45760ff60155460101c1693600785101561025557600194858114159081610398575b5061038657821561035557821161033f57610198601354612883565b601f81116102e9575b50816000601f82116001146102765760009161026b575b50600019600384901b1c191682851b176013555b8460145560155460ff61010061ff00198316178060155560101c16946007861015610255577fcf69bc745759d0d222ad7eb5e661ee1d5009a28037cf530b4964079200d92c9d9514610241575b506002541693610236604051938493604085526040850191612b58565b9060208301520390a2005b62ffff001916620201001760155538610219565b634e487b7160e01b600052602160045260246000fd5b9050830135386101b8565b9050601f19831690601360005283600080516020612dd98339815191529260005b888282106102d0575050106102b6575b50508382811b016013556101cc565b840135600019600385901b60f8161c1916905538806102a7565b8885013586559094019360209384019387935001610297565b6013600052600080516020612dd9833981519152601f840160051c81019160208510610335575b601f0160051c019085905b8281106103295750506101a1565b6000815501859061031b565b9091508190610310565b634e487b7160e01b600052604160045260246000fd5b60405162461bcd60e51b8152602060048201526009602482015268195b5c1d1e4810d25160ba1b6044820152606490fd5b604051634291db1560e11b8152600490fd5b6002915014153861017c565b6040516312d5ee2760e31b8152600490fd5b600080fd5b346103b65760003660031901126103b6576001546002546001600160a01b039081166101405260035481166101605260045481166101805260055481166101a052600654600754600854600954600a54600b54600c54600d54600e54600f546010546040516080526011549c8c169c909b919a92999398949795969594939290911690600061044982612883565b91826080515260018116908160001461072957506001146106cd575b61047791506080519003608051612996565b60125460a05260405160e05260009b60135461049281612883565b908160e051526001811690816000146106a55750600114610654575b506104c260ff9d60e051900360e051612996565b601454610120526015546101005260405160c05260c0515261014051602060c051015261016051604060c051015261018051606060c05101526101a051608060c051015260a060c051015260c08051015260e060c051015261010060c051015261012060c051015261014060c051015261016060c051015261018060c05101526101a060c05101526001600160401b0381166101c060c05101526001600160401b038160401c166101e060c05101526001600160401b038160801c1661020060c051015260c01c61022060c051015260018060a01b03811661024060c0510152818160a01c16151561026060c051015260a81c16151561028060c05101526103806102a060c05101526106006105e061038060c05101608051612809565b60a0516102c060c051015260c05181036102e060c051015260e051612809565b6101205161030060c051015260ff6101005116151561032060c051015260ff6101005160081c16151561034060c051015261064a61036060c0510160ff6101005160101c16612849565b60c051900360c051f35b9c5060136000528c600080516020612dd983398151915260009e8f5b1061068957505060e051909c016020019b6104c26104ae565b60018f916020928382549160e051010152019e019d818f610670565b60ff9f508f60209250906104c2939119168260e0510152151560051b60e05101019d506104ae565b5060116000527f31ecc21a745e3968a04e9570e4425bc18fa8019c68028196b546d1669c200c686000905b8282106107115750608051610477925001602001610465565b600181602092548385608051010152019101906106f8565b6020925061047793915060ff1916826080510152151560051b6080510101610465565b346103b65760203660031901126103b6576004356001600160a01b0381168082036103b657610779612c14565b156107895761078790612d91565b005b604051631e4fbdf760e01b815260006004820152602490fd5b346103b65760003660031901126103b6576107bb612c14565b6107c3612c40565b6003546001600160a01b03908116908115610aa55760155460ff8160101c166007811015610255576003036103865760105460ff8160a01c1615908115610a96575b50610a84577f7084f5476618d8e60b11ef0d7d3f06914655adb8793e28ff7f018d4c76d505d59160209161083a601354612883565b610a3e575b60085461084f600a5480926129b7565b8096620500006108638460011c80956129e4565b946000600855600060095562ff00001916176015558460055416908115600014610a0b575050504761089e83610899848a6129b7565b6129b7565b908181116109eb575b5050806108cb60008080806109659689600354165af16108c5612a0c565b50612a3c565b6108e960008080808789600454165af16108e3612a0c565b50612a81565b61090760008080808b89600254165af1610901612a0c565b50612b1c565b836003541690604051807f3e3d11fed2579ab23676d30f4893a503a2a74a2d3610026a21a83c39e2a85e2e94859382608091815260406020820152600f60408201526e6172626974726174696f6e5f66656560881b60608201520190565b0390a26004546040805193845260208401819052601190840152706c6f7365725f646973707574655f66656560781b6060840152831691608090a26040518481527fd82efe788c6ad752e8623f0025737cf5b80ffc6d780315c9a5fb0b7732e65c0b833392a26002541692604051908152a26001600080516020612df983398151915255005b926109fd610a039261096594956129e4565b906129b7565b9190876108a7565b9181610a1f856109659695610a3995612c70565b610a2e86886004541683612c70565b866002541690612c70565b610907565b7f21c3fb4135c9fa99b642787bdf5e79b3e822f2f5ff6b4f832a29a4be29c700bf601454604051809160408252610a77604083016128bd565b90878301520390a161083f565b604051637be44c7d60e01b8152600490fd5b60ff915060a81c161584610805565b6040516304e2778b60e31b8152600490fd5b346103b6576101e03660031901126103b65760165460ff8116610ef45760ff19166001176016556001600160a01b0380610aef612b79565b16151580610ee2575b15610eb15780610b06612ba5565b1615610e7757610b14612bfe565b6001600160401b0390814291161115610e435761010435916101243590610b3b82856129b7565b91608435809303610e0f576103e8908186111580610e05575b15610dd1576101443590828211610d955761016435928311610d595783610b79612bbb565b1615610d5057610b8f610b8a612bbb565b612d91565b83610b98612b79565b16966001600160601b0360a01b9788600154161760015584610bb8612b8f565b1688600254161760025584610bcb612bbb565b1688600354161760035584610bde612ba5565b1688600454161760045584610bf1612bd1565b16886005541617600555600b55600c55600d55600e55600f546001600160401b0360801b610c1d612bfe565b60801b16908442169077ffffffffffffffff0000000000000000ffffffffffffffff191617179384600f5562ff0000196015541660155581610c5d612bd1565b16610d45575b6101843582811681036103b65760168054610100600160a81b03191660089290921b610100600160a81b031691909117905581610c9e612be7565b1690600654161760065580806101c43580600755610cba612b79565b95610cc3612b8f565b97610ccc612bbb565b9284610cd6612ba5565b9881610ce0612bd1565b610ce8612be7565b92826040519d168d5260208d01521660408b0152166060890152608088015260c43560a088015260801c1660c086015216941692169060e07f884f9aa4402efeab45e6663238512cd803d901e6a2a915fe5907a2a2128f35b091a4005b60c435600855610c63565b610b8f33612d91565b60405162461bcd60e51b81526020600482015260146024820152730e4caeec2e4c840e4c2e8ca40e8dede40d0d2ced60631b6044820152606490fd5b60405162461bcd60e51b81526020600482015260146024820152730c8d2e6e0eae8ca40cccaca40e8dede40d0d2ced60631b6044820152606490fd5b60405162461bcd60e51b815260206004820152600c60248201526b0cccaca40e8dede40d0d2ced60a31b6044820152606490fd5b5081811115610b54565b60405162461bcd60e51b815260206004820152600c60248201526b0cccaca40dad2e6dac2e8c6d60a31b6044820152606490fd5b60405162461bcd60e51b815260206004820152600c60248201526b62616420646561646c696e6560a01b6044820152606490fd5b60405162461bcd60e51b81526020600482015260126024820152711e995c9bc8199959481c9958da5c1a595b9d60721b6044820152606490fd5b60405162461bcd60e51b81526020600482015260096024820152683d32b9379030b2323960b91b6044820152606490fd5b5080610eec612b8f565b161515610af8565b60405162dc149f60e41b8152600490fd5b346103b6576020806003193601126103b6576004356001600160401b0381116103b657610f36903690600401612856565b6001546001600160a01b031692919033849003611083576015549360ff8560101c1660078110156102555760020361038657610f71826129f1565b610f7e6040519182612996565b8281528481019036848601116103b657838583376000868583010152519020604051610fb481610fad816128bd565b0382612996565b85815191012003611071577fe3053523a3a35835db28369b20a103b8fe2f7d12c0a6b61b8c23dfe4d5baed6560ff9360018519881617938460155561100460405192839289845289840191612b58565b0390a260081c1680611069575b61101757005b620400017f21c3fb4135c9fa99b642787bdf5e79b3e822f2f5ff6b4f832a29a4be29c700bf9262ff00ff19161760155560145460405191829160408352611060604084016128bd565b918301520390a1005b506001611011565b6040516387cf120760e01b8152600490fd5b6040516386efbb5560e01b8152600490fd5b60003660031901126103b6576001546001600160a01b03908116338190036110835760ff60155460101c16600781101561025557610386576005548216806111c057505034156111ae57600b54612710803402913483048203611198578101809111611198576111286040917fcd909ec339185c4598a4096e174308fbdf136d117f230960f873a2f2e81f63af936129c4565b61113281346129e4565b9381600855846009555b61271061114b600d5484612b09565b04600a55600f5467ffffffffffffffff60401b42851b169067ffffffffffffffff60401b191617600f556201000062ff0000196015541617601555600154169382519182526020820152a2005b634e487b7160e01b600052601160045260246000fd5b604051630bba69fb60e01b8152600490fd5b9091346111ae5760085491612710918284029284840481148515171561119857600b548101809111611198577fcd909ec339185c4598a4096e174308fbdf136d117f230960f873a2f2e81f63af9461121d611230926040966129c4565b9361122885836129e4565b973091612cf1565b816008558460095561113c565b346103b65760003660031901126103b657600061036060405161125f8161295f565b8281528260208201528260408201528260608201528260808201528260a08201528260c08201528260e08201528261010082015282610120820152826101408201528261016082015282610180820152826101a0820152826101c0820152826101e0820152826102008201528261022082015282610240820152826102608201528261028082015260606102a0820152826102c082015260606102e082015282610300820152826103208201528261034082015201526040516113218161295f565b6001546001600160a01b039081168252600254811660208301526003548116604080840191909152600454821660608401526005548216608080850191909152600654831660a08581019190915260075460c08087019190915260085460e0870152600954610100870152600a54610120870152600b54610140870152600c54610160870152600d54610180870152600e546101a0870152600f546001600160401b038082166101c089015281861c81166101e08901529381901c9093166102008701529190911c61022085015260105492831661024085015282901c60ff908116151561026085015260a89290921c90911615156102808301525160115481600061142c83612883565b80835292600181169081156116ee575060011461168d575b61145092500382612996565b6102a08201526012546102c082015260405161146f81610fad816128bd565b6102e082015260145461030082015260155460ff8116151561032083015260ff8160081c161515610340830152600760ff8260101c1610156102555760ff9060101c1661036082015260405180916020825260018060a01b03815116602083015260018060a01b03602082015116604083015260018060a01b03604082015116606083015260018060a01b03606082015116608083015260018060a01b0360808201511660a083015260018060a01b0360a08201511660c083015260c081015160e083015260e08101516101008301526101008101516101208301526101208101516101408301526101408101516101608301526101608101516101808301526101808101516101a08301526101a08101516101c08301526001600160401b036101c0820151166101e08301526001600160401b036101e0820151166102008301526001600160401b03610200820151166102208301526001600160401b036102208201511661024083015260018060a01b0361024082015116610260830152610260810151151561028083015261028081015115156102a08301526116896102a082015161036061165761163361038093846102c08901526103a0880190612809565b6102c08601516102e08801526102e0860151601f1988830301610300890152612809565b936103008101516103208701526103208101511515610340870152610340810151151582870152015190840190612849565b0390f35b509060116000527f31ecc21a745e3968a04e9570e4425bc18fa8019c68028196b546d1669c200c68906000915b8183106116d257505090602061145092820101611444565b60209193508060019154838588010152019101909183926116ba565b6020925061145094915060ff191682840152151560051b820101611444565b346103b65760003660031901126103b65760ff60155460101c1660078110156102555760041480611746575b6020906040519015158152f35b506008541515611739565b346103b65760003660031901126103b65760165460405160089190911c6001600160a01b03168152602090f35b346103b65760003660031901126103b657611797612c40565b60155460ff8160101c1660078110156102555760030361038657600f5460c01c42106119f55760105460ff8160a01c16806119e8575b610a845760018060a01b039160085491600a5490600060085584806001541691161460001461190157505060206118287fd7dee2702d63ad89917b6a4da9981c90c4d24f8c2bdfd64c604ecae57d8d065192600954906129b7565b9260006009556206000062ff000019601554161760155580600554168481156000146118ed5761186e915060008080809386600154165af1611868612a0c565b50612acd565b6001541692837faab9115643ea215a7033c875b90bea2944862403f31d64dd739f7c380f3ae039604051806118ce81606090602081526016602082015275636f756e74657270617274795f6469646e745f70617960501b60408201520190565b0390a2604051908152a25b6001600080516020612df983398151915255005b6118fc91836001541690612c70565b61186e565b9262050000611934602093957f7084f5476618d8e60b11ef0d7d3f06914655adb8793e28ff7f018d4c76d505d5956129b7565b62ff00001990951617601555600554811684816119d457611965915060008080809386600254165af1610901612a0c565b6002541692837faab9115643ea215a7033c875b90bea2944862403f31d64dd739f7c380f3ae039604051806119c581606090602081526016602082015275636f756e74657270617274795f6469646e745f70617960501b60408201520190565b0390a2604051908152a26118d9565b6119e391836002541690612c70565b611965565b5060ff8160a81c166117cd565b604051630e62333360e01b8152600490fd5b346103b65760203660031901126103b6576004356001600160a01b03811681036103b657611a33612c14565b60168054610100600160a81b03191660089290921b610100600160a81b0316919091179055005b346103b65760003660031901126103b6576000546040516001600160a01b039091168152602090f35b346103b65760203660031901126103b6576004356001600160a01b038116908190036103b657611ab1612c14565b6001600160601b0360a01b6006541617600655600080f35b346103b65760003660031901126103b657611ae2612c14565b600080546001600160a01b0319811682556001600160a01b03167f8be0079c531659141344cd1fd0a4f28419497f9722a3daafe3b4186f6b6457e08280a3005b346103b65760003660031901126103b657608060018060a01b038060015416908060025416908060035416906004541691604051938452602084015260408301526060820152f35b60003660031901126103b657600154336001600160a01b039182161490811580611d60575b611d4e578115611d185760ff60155460101c1660078110156102555760018114159081611d0c575b50610386575b806003541615610aa557600254811690338203611cf0576203f4804201804211611198576001600160401b0316925b15611ca9575050600954600a5411611c97576010805460ff60a01b1916600160a01b1790555b336001600160601b0360a01b6010541617601055600f546001600160401b0360c01b8260c01b169060018060c01b031617600f556203000062ff00001960155416176015556001600160401b03600a54916040519283521660208201527f69aed8038ad9fbfc8218ef9a586e5ce663a88a05c8dcea0ac3560acacfc198c760403392a2005b60405163c4bdc54760e01b8152600490fd5b600554169081611cd7575050600a543410611c97575b6010805460ff60a81b1916600160a81b179055611c12565b346111ae57611ceb91600a54913091612cf1565b611cbf565b6202a3004201804211611198576001600160401b031692611bec565b60029150141583611bb7565b80600254163303611bbd5760ff60155460101c16600781101561025557600214611bbd57604051634291db1560e11b8152600490fd5b604051630eebd6cd60e21b8152600490fd5b508060025416331415611b8f565b346103b65760003660031901126103b657600280546001600160a01b039190821633036103a457611d9d612c40565b6015549160ff8360101c166007811015610255576004036103865760085492600954906127109062050000611dea611de384611ddb600c548b612b09565b0480966129b7565b94886129e4565b916000600855600060095562ff0000191617601555836005541681811560001461243757505060008080808688600454165af1611e25612a0c565b50156123fd57600080808084888a54165af1611e3f612a0c565b50156123c6575b83600454166040519384527f3e3d11fed2579ab23676d30f4893a503a2a74a2d3610026a21a83c39e2a85e2e608060209560408782015260156040820152746e6f726d616c5f636f6d706c6574696f6e5f66656560581b6060820152a27f7084f5476618d8e60b11ef0d7d3f06914655adb8793e28ff7f018d4c76d505d5838587541692604051908152a2826006541694600754861515806123bd575b611efb576001600080516020612df983398151915255005b670de0b6b3a764000092611f15611f1b93600e5490612b09565b04612b09565b04938415908115611f2d575b806118d9565b60165460081c84161561220e575050604051611f488161297b565b838152818101906040368337604051611f608161297b565b858152838101906040368337846001928760015416611f7e86612d5e565b5287895416611f8c86612d81565b5289611f9784612d5e565b5289611fa284612d81565b528760165460081c1695604051948386019663b8dd625f60e01b88526084870190606060248901525180915260a48701929060005b8c8282106121f85750505050836023199586888503016044890152519283815201929160005b8181106121e357505050509261204b604060009795947032b9b1b937bbafb1b7b6b83632ba34b7b760791b8998969586868b9803938401606488015260118152015289810184520182612996565b51925af1612057612a0c565b901561217f5781818051810103126103b65781015180151581036103b65715612127575080612118916001541692604051937f21a82678daa5235b7b5de669fdf9599453d3d885cee0826e92636d747419689c85806120de898499608091815260406020820152600c60408201526b189d5e595c97dc995dd85c9960a21b60608201520190565b0390a254169260405191829182608091815260406020820152600d60408201526c1d995b991bdc97dc995dd85c99609a1b60608201520190565b0390a25b808080808080611f27565b600093507f3e2b10137abf66c99b4df38a02ffc048e5aa72e1ddf22de80642e697bf64197d92506060915060126040519180835282015271191a5cdd1c9a589d5d1bdc97d9985a5b195960721b6040820152a261211c565b50600093507f3e2b10137abf66c99b4df38a02ffc048e5aa72e1ddf22de80642e697bf64197d9250606091506017604051918083528201527f6469737472696275746f725f63616c6c5f6661696c65640000000000000000006040820152a261211c565b835185528a9594850194909301928201611ffd565b83511685528b9694850194909201918301611fd7565b8360009695929493965416938560011b908682048414171561119857604051636eb1769f60e11b8152600481018690523060248201528781604481865afa9081156123b157600091612384575b501061232857848096506122e99161227d612320969786600154168984612cf1565b846001541696604051977f21a82678daa5235b7b5de669fdf9599453d3d885cee0826e92636d747419689c89806122dc87849d608091815260406020820152600c60408201526b189d5e595c97dc995dd85c9960a21b60608201520190565b0390a28585541691612cf1565b54169260405191829182608091815260406020820152600d60408201526c1d995b991bdc97dc995dd85c99609a1b60608201520190565b0390a261211c565b50505050507f3e2b10137abf66c99b4df38a02ffc048e5aa72e1ddf22de80642e697bf64197d606060009260166040519180835282015275696e73756666696369656e745f616c6c6f77616e636560501b6040820152a261211c565b90508781813d83116123aa575b61239b8183612996565b810103126103b657518861225b565b503d612391565b6040513d6000823e3d90fd5b50801515611ee3565b60405162461bcd60e51b815260206004820152600f60248201526e1dda5d1a191c985dc819985a5b1959608a1b6044820152606490fd5b60405162461bcd60e51b8152602060048201526012602482015271199959481c185e5b595b9d0819985a5b195960721b6044820152606490fd5b6124549161244a86886004541683612c70565b8688541690612c70565b611e46565b60003660031901126103b657600154336001600160a01b03918216149081158061258e575b611d4e576015549160ff601093841c1660078110156102555760030361038657825490828216331461251657600f5460c01c421161257c5715612528575050805460ff8160a01c1661251657600954600a5411611c975760ff60a01b1916600160a01b1790555b600a546040519081527fb5118a8a92771e3e991d5f58972e139b1573725c9eb05b5810b4eb399bc043a360203392a2005b6040516397e7de5760e01b8152600490fd5b60a81c60ff166125165760055481168061255e575050600a543410611c97575b805460ff60a81b1916600160a81b1790556124e5565b346111ae57612577916002541690600a54913091612cf1565b612548565b60405163080532ff60e11b8152600490fd5b50806002541633141561247e565b346103b65760203660031901126103b6576125b5612c14565b600435600755005b346103b65760003660031901126103b65760ff60155460101c16600781101561025557602090604051908152f35b346103b65760003660031901126103b657612604612c14565b61260c612c40565b6003546001600160a01b03908116908115610aa55760155460ff8160101c166007811015610255576003036103865760105460ff8160a01c16159081156127fa575b50610a84577fd7dee2702d63ad89917b6a4da9981c90c4d24f8c2bdfd64c604ecae57d8d06519160209160085461268b600a5491600954906129b7565b80966206000061269f8460011c80956129e4565b946000600855600060095562ff000019161760155584600554169081156000146127cc57505050476126d583610899848a6129b7565b908181116127b2575b5050806126fc600080808061272c9689600354165af16108c5612a0c565b61271460008080808789600454165af16108e3612a0c565b61090760008080808b89600154165af1611868612a0c565b0390a26004546040805193845260208401819052601190840152706c6f7365725f646973707574655f66656560781b6060840152831691608090a26040518481527f1a6b239413869eb48f20710812d9dd84bed42640718f72af5517d20dd7b611d7833392a26001541692604051908152a26001600080516020612df983398151915255005b926109fd6127c49261272c94956129e4565b9190876126de565b91816127e08561272c9695610a3995612c70565b6127ef86886004541683612c70565b866001541690612c70565b60ff915060a81c16158461264e565b919082519283825260005b848110612835575050826000602080949584010152601f8019910116010190565b602081830181015184830182015201612814565b9060078210156102555752565b9181601f840112156103b6578235916001600160401b0383116103b657602083818601950101116103b657565b90600182811c921680156128b3575b602083101461289d57565b634e487b7160e01b600052602260045260246000fd5b91607f1691612892565b601354600092916128cd82612883565b8082529160209060019081811690811561293a57506001146128f0575b50505050565b929394506013600052600080516020612dd9833981519152926000935b8585106129275750505060209250010190388080806128ea565b805485850184015293820193810161290d565b92505050602093945060ff929192191683830152151560051b010190388080806128ea565b61038081019081106001600160401b0382111761033f57604052565b606081019081106001600160401b0382111761033f57604052565b90601f801991011681019081106001600160401b0382111761033f57604052565b9190820180921161119857565b81156129ce570490565b634e487b7160e01b600052601260045260246000fd5b9190820391821161119857565b6001600160401b03811161033f57601f01601f191660200190565b3d15612a37573d90612a1d826129f1565b91612a2b6040519384612996565b82523d6000602084013e565b606090565b15612a4357565b60405162461bcd60e51b8152602060048201526016602482015275185c989a5d195c881c185e5b595b9d0819985a5b195960521b6044820152606490fd5b15612a8857565b60405162461bcd60e51b815260206004820152601c60248201527f66656520726563697069656e74207061796d656e74206661696c6564000000006044820152606490fd5b15612ad457565b60405162461bcd60e51b815260206004820152600d60248201526c1c99599d5b990819985a5b1959609a1b6044820152606490fd5b8181029291811591840414171561119857565b15612b2357565b60405162461bcd60e51b815260206004820152600d60248201526c1c185e5bdd5d0819985a5b1959609a1b6044820152606490fd5b908060209392818452848401376000828201840152601f01601f1916010190565b6004356001600160a01b03811681036103b65790565b6024356001600160a01b03811681036103b65790565b6064356001600160a01b03811681036103b65790565b6044356001600160a01b03811681036103b65790565b60a4356001600160a01b03811681036103b65790565b6101a4356001600160a01b03811681036103b65790565b60e4356001600160401b03811681036103b65790565b6000546001600160a01b03163303612c2857565b60405163118cdaa760e01b8152336004820152602490fd5b600080516020612df98339815191526002815414612c5e5760029055565b604051633ee5aeb560e01b8152600490fd5b60405163a9059cbb60e01b60009081526001600160a01b039384166004526024949094529260209060448180855af1600160005114811615612cd1575b8360405215612cbb57505050565b635274afe760e01b835216600482015260249150fd5b6001811516612ce757813b15153d151616612cad565b833d6000823e3d90fd5b6040516323b872dd60e01b60009081526001600160a01b03938416600452938316602452604494909452909160209060648180855af1600160005114811615612d48575b83604052600060605215612cbb57505050565b6001811516612ce757813b15153d151616612d35565b805115612d6b5760200190565b634e487b7160e01b600052603260045260246000fd5b805160011015612d6b5760400190565b600080546001600160a01b039283166001600160a01b03198216811783559216907f8be0079c531659141344cd1fd0a4f28419497f9722a3daafe3b4186f6b6457e09080a356fe66de8ffda797e3de9c05e8fc57b3bf0ec28a930d40b0d285d93c06501cf6a0909b779b17422d0df92223018b32b4d1fa46e071723d6817e2486d003becc55f00a2646970667358221220e3bfea677e5a700889cc0a29e2660dcd466f429a8b329d5d078554868ebe636d64736f6c63430008180033","linkReferences":{}},"methodIdentifiers":{"approve(string)":"b67b7163","deliver(string,bytes32)":"fe961ae2","escrowInfo()":"f3d25904","fund()":"b60d4288","getAllInfo()":"b18e15bd","getState()":"1865c57d","initialize((address,address,address,address,uint256,address,uint256,uint64,uint256,uint256,uint256,uint256,address,address,uint256))":"ddd0df6d","initiateDispute()":"4acc296f","isReleasable()":"ad9bdebb","owner()":"8da5cb5b","participants()":"6c4470fb","payDisputeFee()":"394ff3eb","renounceOwnership()":"715018a6","resolveDisputeByDefault()":"ac759f16","resolveToBuyer()":"102df91d","resolveToVendor()":"ed60e20b","rewardDistributor()":"acc2166a","setRewardDistributor(address)":"a1809b95","setRewardRatePer1e18(uint256)":"1f7cb13b","setRewardToken(address)":"8aee8127","transferOwnership(address)":"f2fde38b","withdraw()":"3ccfd60b"},"id":33}