{"abi":[{"type":"constructor","inputs":[],"stateMutability":"nonpayable"},{"type":"function","name":"approve","inputs":[{"name":"_cid","type":"string","internalType":"string"}],"outputs":[],"stateMutability":"nonpayable"},{"type":"function","name":"deliver","inputs":[{"name":"_cid","type":"string","internalType":"string"},{"name":"_contentHash","type":"bytes32","internalType":"bytes32"}],"outputs":[],"stateMutability":"nonpayable"},{"type":"function","name":"escrowInfo","inputs":[],"outputs":[{"name":"buyer","type":"address","internalType":"address"},{"name":"vendor","type":"address","internalType":"address"},{"name":"arbiter","type":"address","internalType":"address"},{"name":"feeRecipient","type":"address","internalType":"address"},{"name":"rewardToken","type":"address","internalType":"address"},{"name":"rewardRatePer1e18","type":"uint256","internalType":"uint256"},{"name":"amount","type":"uint256","internalType":"uint256"},{"name":"buyerFeeReserve","type":"uint256","internalType":"uint256"},{"name":"disputeFeeAmount","type":"uint256","internalType":"uint256"},{"name":"buyerFeeBps","type":"uint256","internalType":"uint256"},{"name":"vendorFeeBps","type":"uint256","internalType":"uint256"},{"name":"disputeFeeBps","type":"uint256","internalType":"uint256"},{"name":"rewardRateBps","type":"uint256","internalType":"uint256"},{"name":"createdAt","type":"uint64","internalType":"uint64"},{"name":"fundedAt","type":"uint64","internalType":"uint64"},{"name":"deadline","type":"uint64","internalType":"uint64"},{"name":"disputeFeeDeadline","type":"uint64","internalType":"uint64"},{"name":"disputeInitiator","type":"address","internalType":"address"},{"name":"buyerPaidDisputeFee","type":"bool","internalType":"bool"},{"name":"vendorPaidDisputeFee","type":"bool","internalType":"bool"},{"name":"cid","type":"string","internalType":"string"},{"name":"contentHash","type":"bytes32","internalType":"bytes32"},{"name":"proposedCID","type":"string","internalType":"string"},{"name":"proposedContentHash","type":"bytes32","internalType":"bytes32"},{"name":"buyerApproved","type":"bool","internalType":"bool"},{"name":"vendorApproved","type":"bool","internalType":"bool"},{"name":"state","type":"uint8","internalType":"enum Escrow.State"}],"stateMutability":"view"},{"type":"function","name":"fund","inputs":[],"outputs":[],"stateMutability":"payable"},{"type":"function","name":"getAllInfo","inputs":[],"outputs":[{"name":"","type":"tuple","internalType":"struct Escrow.EscrowInfo","components":[{"name":"buyer","type":"address","internalType":"address"},{"name":"vendor","type":"address","internalType":"address"},{"name":"arbiter","type":"address","internalType":"address"},{"name":"feeRecipient","type":"address","internalType":"address"},{"name":"rewardToken","type":"address","internalType":"address"},{"name":"rewardRatePer1e18","type":"uint256","internalType":"uint256"},{"name":"amount","type":"uint256","internalType":"uint256"},{"name":"buyerFeeReserve","type":"uint256","internalType":"uint256"},{"name":"disputeFeeAmount","type":"uint256","internalType":"uint256"},{"name":"buyerFeeBps","type":"uint256","internalType":"uint256"},{"name":"vendorFeeBps","type":"uint256","internalType":"uint256"},{"name":"disputeFeeBps","type":"uint256","internalType":"uint256"},{"name":"rewardRateBps","type":"uint256","internalType":"uint256"},{"name":"createdAt","type":"uint64","internalType":"uint64"},{"name":"fundedAt","type":"uint64","internalType":"uint64"},{"name":"deadline","type":"uint64","internalType":"uint64"},{"name":"disputeFeeDeadline","type":"uint64","internalType":"uint64"},{"name":"disputeInitiator","type":"address","internalType":"address"},{"name":"buyerPaidDisputeFee","type":"bool","internalType":"bool"},{"name":"vendorPaidDisputeFee","type":"bool","internalType":"bool"},{"name":"cid","type":"string","internalType":"string"},{"name":"contentHash","type":"bytes32","internalType":"bytes32"},{"name":"proposedCID","type":"string","internalType":"string"},{"name":"proposedContentHash","type":"bytes32","internalType":"bytes32"},{"name":"buyerApproved","type":"bool","internalType":"bool"},{"name":"vendorApproved","type":"bool","internalType":"bool"},{"name":"state","type":"uint8","internalType":"enum Escrow.State"}]}],"stateMutability":"view"},{"type":"function","name":"getState","inputs":[],"outputs":[{"name":"","type":"uint256","internalType":"uint256"}],"stateMutability":"view"},{"type":"function","name":"initialize","inputs":[{"name":"params","type":"tuple","internalType":"struct Escrow.InitParams","components":[{"name":"buyer","type":"address","internalType":"address"},{"name":"seller","type":"address","internalType":"address"},{"name":"arbiter","type":"address","internalType":"address"},{"name":"feeRecipient","type":"address","internalType":"address"},{"name":"feeBps","type":"uint256","internalType":"uint256"},{"name":"paymentToken","type":"address","internalType":"address"},{"name":"amountWei","type":"uint256","internalType":"uint256"},{"name":"deadline","type":"uint64","internalType":"uint64"},{"name":"buyerFeeBps","type":"uint256","internalType":"uint256"},{"name":"vendorFeeBps","type":"uint256","internalType":"uint256"},{"name":"disputeFeeBps","type":"uint256","internalType":"uint256"},{"name":"rewardRateBps","type":"uint256","internalType":"uint256"},{"name":"rewardDistributor","type":"address","internalType":"address"},{"name":"rewardToken","type":"address","internalType":"address"},{"name":"rewardRatePer1e18","type":"uint256","internalType":"uint256"}]}],"outputs":[],"stateMutability":"nonpayable"},{"type":"function","name":"initiateDispute","inputs":[],"outputs":[],"stateMutability":"payable"},{"type":"function","name":"isReleasable","inputs":[],"outputs":[{"name":"","type":"bool","internalType":"bool"}],"stateMutability":"view"},{"type":"function","name":"owner","inputs":[],"outputs":[{"name":"","type":"address","internalType":"address"}],"stateMutability":"view"},{"type":"function","name":"participants","inputs":[],"outputs":[{"name":"","type":"address","internalType":"address"},{"name":"","type":"address","internalType":"address"},{"name":"","type":"address","internalType":"address"},{"name":"","type":"address","internalType":"address"}],"stateMutability":"view"},{"type":"function","name":"payDisputeFee","inputs":[],"outputs":[],"stateMutability":"payable"},{"type":"function","name":"renounceOwnership","inputs":[],"outputs":[],"stateMutability":"nonpayable"},{"type":"function","name":"resolveDisputeByDefault","inputs":[],"outputs":[],"stateMutability":"nonpayable"},{"type":"function","name":"resolveToBuyer","inputs":[],"outputs":[],"stateMutability":"nonpayable"},{"type":"function","name":"resolveToVendor","inputs":[],"outputs":[],"stateMutability":"nonpayable"},{"type":"function","name":"rewardDistributor","inputs":[],"outputs":[{"name":"","type":"address","internalType":"address"}],"stateMutability":"view"},{"type":"function","name":"setRewardDistributor","inputs":[{"name":"_distributor","type":"address","internalType":"address"}],"outputs":[],"stateMutability":"nonpayable"},{"type":"function","name":"setRewardRatePer1e18","inputs":[{"name":"_rate","type":"uint256","internalType":"uint256"}],"outputs":[],"stateMutability":"nonpayable"},{"type":"function","name":"setRewardToken","inputs":[{"name":"_rewardToken","type":"address","internalType":"address"}],"outputs":[],"stateMutability":"nonpayable"},{"type":"function","name":"transferOwnership","inputs":[{"name":"newOwner","type":"address","internalType":"address"}],"outputs":[],"stateMutability":"nonpayable"},{"type":"function","name":"withdraw","inputs":[],"outputs":[],"stateMutability":"nonpayable"},{"type":"event","name":"Approved","inputs":[{"name":"buyer","type":"address","indexed":true,"internalType":"address"},{"name":"cid","type":"string","indexed":false,"internalType":"string"}],"anonymous":false},{"type":"event","name":"Delivered","inputs":[{"name":"vendor","type":"address","indexed":true,"internalType":"address"},{"name":"cid","type":"string","indexed":false,"internalType":"string"},{"name":"contentHash","type":"bytes32","indexed":false,"internalType":"bytes32"}],"anonymous":false},{"type":"event","name":"DisputeFeePaid","inputs":[{"name":"payer","type":"address","indexed":true,"internalType":"address"},{"name":"amount","type":"uint256","indexed":false,"internalType":"uint256"}],"anonymous":false},{"type":"event","name":"DisputeInitiated","inputs":[{"name":"initiator","type":"address","indexed":true,"internalType":"address"},{"name":"feeAmount","type":"uint256","indexed":false,"internalType":"uint256"},{"name":"deadline","type":"uint64","indexed":false,"internalType":"uint64"}],"anonymous":false},{"type":"event","name":"DisputeResolvedByDefault","inputs":[{"name":"winner","type":"address","indexed":true,"internalType":"address"},{"name":"reason","type":"string","indexed":false,"internalType":"string"}],"anonymous":false},{"type":"event","name":"FeePaid","inputs":[{"name":"to","type":"address","indexed":true,"internalType":"address"},{"name":"amount","type":"uint256","indexed":false,"internalType":"uint256"},{"name":"reason","type":"string","indexed":false,"internalType":"string"}],"anonymous":false},{"type":"event","name":"Funded","inputs":[{"name":"buyer","type":"address","indexed":true,"internalType":"address"},{"name":"amount","type":"uint256","indexed":false,"internalType":"uint256"},{"name":"buyerFee","type":"uint256","indexed":false,"internalType":"uint256"}],"anonymous":false},{"type":"event","name":"Initialized","inputs":[{"name":"buyer","type":"address","indexed":true,"internalType":"address"},{"name":"seller","type":"address","indexed":true,"internalType":"address"},{"name":"arbiter","type":"address","indexed":true,"internalType":"address"},{"name":"feeRecipient","type":"address","indexed":false,"internalType":"address"},{"name":"feeBps","type":"uint256","indexed":false,"internalType":"uint256"},{"name":"paymentToken","type":"address","indexed":false,"internalType":"address"},{"name":"amountWei","type":"uint256","indexed":false,"internalType":"uint256"},{"name":"deadline","type":"uint64","indexed":false,"internalType":"uint64"}],"anonymous":false},{"type":"event","name":"OwnershipTransferred","inputs":[{"name":"previousOwner","type":"address","indexed":true,"internalType":"address"},{"name":"newOwner","type":"address","indexed":true,"internalType":"address"}],"anonymous":false},{"type":"event","name":"Refunded","inputs":[{"name":"to","type":"address","indexed":true,"internalType":"address"},{"name":"amount","type":"uint256","indexed":false,"internalType":"uint256"}],"anonymous":false},{"type":"event","name":"ResolvedToBuyer","inputs":[{"name":"arbiter","type":"address","indexed":true,"internalType":"address"},{"name":"amount","type":"uint256","indexed":false,"internalType":"uint256"}],"anonymous":false},{"type":"event","name":"ResolvedToVendor","inputs":[{"name":"arbiter","type":"address","indexed":true,"internalType":"address"},{"name":"amount","type":"uint256","indexed":false,"internalType":"uint256"}],"anonymous":false},{"type":"event","name":"ResultFinalized","inputs":[{"name":"cid","type":"string","indexed":false,"internalType":"string"},{"name":"contentHash","type":"bytes32","indexed":false,"internalType":"bytes32"}],"anonymous":false},{"type":"event","name":"RewardPaid","inputs":[{"name":"to","type":"address","indexed":true,"internalType":"address"},{"name":"amount","type":"uint256","indexed":false,"internalType":"uint256"},{"name":"reason","type":"string","indexed":false,"internalType":"string"}],"anonymous":false},{"type":"event","name":"RewardSkipped","inputs":[{"name":"to","type":"address","indexed":true,"internalType":"address"},{"name":"reason","type":"string","indexed":false,"internalType":"string"}],"anonymous":false},{"type":"event","name":"Withdrawn","inputs":[{"name":"to","type":"address","indexed":true,"internalType":"address"},{"name":"amount","type":"uint256","indexed":false,"internalType":"uint256"}],"anonymous":false},{"type":"error","name":"AlreadyInitialized","inputs":[]},{"type":"error","name":"BadState","inputs":[]},{"type":"error","name":"BadValue","inputs":[]},{"type":"error","name":"BothPartiesNotPaid","inputs":[]},{"type":"error","name":"CIDMismatch","inputs":[]},{"type":"error","name":"DeadlineNotReached","inputs":[]},{"type":"error","name":"DisputeFeeAlreadyPaid","inputs":[]},{"type":"error","name":"DisputeFeeDeadlineNotPassed","inputs":[]},{"type":"error","name":"DisputeFeeDeadlinePassed","inputs":[]},{"type":"error","name":"InsufficientDisputeFee","inputs":[]},{"type":"error","name":"NoArbiter","inputs":[]},{"type":"error","name":"OnlyBuyer","inputs":[]},{"type":"error","name":"OnlyParticipant","inputs":[]},{"type":"error","name":"OnlyVendor","inputs":[]},{"type":"error","name":"OwnableInvalidOwner","inputs":[{"name":"owner","type":"address","internalType":"address"}]},{"type":"error","name":"OwnableUnauthorizedAccount","inputs":[{"name":"account","type":"address","internalType":"address"}]},{"type":"error","name":"ReentrancyGuardReentrantCall","inputs":[]}],"bytecode":{"object":"0x60808060405234610080576000805460016001600160a01b0319821681178355916001600160a01b03909116907f8be0079c531659141344cd1fd0a4f28419497f9722a3daafe3b4186f6b6457e09080a360017f9b779b17422d0df92223018b32b4d1fa46e071723d6817e2486d003becc55f0055612b1790816100868239f35b600080fdfe610160604052600436101561001357600080fd5b60003560e01c8063102df91d1461236f5780631865c57d146123415780631f7cb13b14612320578063394ff3eb1461220b5780633ccfd60b14611a1c5780634acc296f146118405780636c4470fb146117f8578063715018a61461179f5780638aee8127146117595780638da5cb5b14611730578063a1809b95146116dd578063ac759f161461149b578063acc2166a1461146e578063ad9bdebb1461142a578063b18e15bd14611012578063b60d428814610ede578063b67b716314610d4e578063ddd0df6d14610938578063ed60e20b14610660578063f2fde38b1461060a578063f3d25904146103df5763fe961ae21461010f57600080fd5b346103da5760403660031901126103da576001600160401b036004358181116103da576101409036906004016125a2565b600254602435939291906001600160a01b0390811633036103c85760ff60145460101c16936007851015610255576001948581141590816103bc575b506103aa578215610379578211610363576101986012546125cf565b601f81116102fb575b50816000601f82116001146102765760009161026b575b50600019600384901b1c191682851b176012555b8460135560145460ff61010061ff00198316178060145560101c16946007861015610255577fcf69bc745759d0d222ad7eb5e661ee1d5009a28037cf530b4964079200d92c9d9514610241575b506002541693610236604051938493604085526040850191612924565b9060208301520390a2005b62ffff001916620201001760145538610219565b634e487b7160e01b600052602160045260246000fd5b9050830135386101b8565b9050601f198316906012600052837fbb8a6a4669ba250d26cd7a459eca9d215f8307e33aebe50379bc5a3617ec34449260005b888282106102e2575050106102c8575b50508382811b016012556101cc565b840135600019600385901b60f8161c1916905538806102b9565b88850135865590940193602093840193879350016102a9565b60126000527fbb8a6a4669ba250d26cd7a459eca9d215f8307e33aebe50379bc5a3617ec3444601f840160051c81019160208510610359575b601f0160051c019085905b82811061034d5750506101a1565b6000815501859061033f565b9091508190610334565b634e487b7160e01b600052604160045260246000fd5b60405162461bcd60e51b8152602060048201526009602482015268195b5c1d1e4810d25160ba1b6044820152606490fd5b604051634291db1560e11b8152600490fd5b6002915014153861017c565b6040516312d5ee2760e31b8152600490fd5b600080fd5b346103da5760003660031901126103da576001546002546001600160a01b0390811661012052600354811661014052600454600554600654600754600854600954600a54600b54600c54600d54600e54600f546040516105b99e6105999e919d60ff9d939c949b959a969997989796959493831692908116911661046e8f8061046781612609565b0390612782565b60115460805260405160a05261049460a05161048b60a0516126bd565b0360a051612782565b6013546101005260145460e05260405160c05260c0515261012051602060c051015261014051604060c0510152606060c0510152608060c051015260a060c051015260c08051015260e060c051015261010060c051015261012060c051015261014060c051015261016060c051015261018060c05101526001600160401b0381166101a060c05101526001600160401b038160401c166101c060c05101526001600160401b038160801c166101e060c051015260c01c61020060c051015260018060a01b03811661022060c0510152818160a01c16151561024060c051015260a81c16151561026060c051015261036061028060c051015261036060c0510190612555565b6080516102a060c051015260c05181036102c060c051015260a051612555565b610100516102e060c051015260ff60e05116151561030060c051015260ff60e05160081c16151561032060c051015261060061034060c0510160ff60e05160101c16612595565b60c051900360c051f35b346103da5760203660031901126103da576004356001600160a01b0381168082036103da576106376129b3565b156106475761064590612a5a565b005b604051631e4fbdf760e01b815260006004820152602490fd5b346103da5760003660031901126103da576106796129b3565b6106816129df565b6003546001600160a01b03908116908115610926576014549160ff8360101c166007811015610255576003036103aa57600f5460ff8160a01c1615908115610917575b50610905577f7084f5476618d8e60b11ef0d7d3f06914655adb8793e28ff7f018d4c76d505d5916020916106f96012546125cf565b6108bf575b6007549461070f60095480976127a3565b95620500006107228260011c80936127b0565b926000600755600060085562ff00001916176014554761074b83610746848b6127a3565b6127a3565b90818111610894575b50506107746000808080856107d297985af161076e6127d8565b50612808565b836003541690604051807f3e3d11fed2579ab23676d30f4893a503a2a74a2d3610026a21a83c39e2a85e2e94859382608091815260406020820152600f60408201526e6172626974726174696f6e5f66656560881b60608201520190565b0390a26107f360008080808688600454165af16107ed6127d8565b5061284d565b6004546040805193845260208401819052601190840152706c6f7365725f646973707574655f66656560781b6060840152831691608090a261084960008080808886600254165af16108436127d8565b506128e8565b6040518481527fd82efe788c6ad752e8623f0025737cf5b80ffc6d780315c9a5fb0b7732e65c0b833392a26002541692604051908152a26001600080516020612ac283398151915255005b60008080856108b46107d2986108ae6107749885986127b0565b906127a3565b975050505050610754565b7f21c3fb4135c9fa99b642787bdf5e79b3e822f2f5ff6b4f832a29a4be29c700bf6013546040518091604082526108f8604083016126bd565b90878301520390a16106fe565b604051637be44c7d60e01b8152600490fd5b60ff915060a81c1615846106c4565b6040516304e2778b60e31b8152600490fd5b346103da576101e03660031901126103da5760155460ff8116610d3d5760ff19166001176015556001600160a01b0380610970612945565b16151580610d2b575b15610cfa5780610987612971565b1615610cc05761099561299d565b6001600160401b0390814291161115610c8c57610104359061012435906109bc82846127a3565b91608435809303610c58576103e8908185111580610c4e575b15610c1a576101443590828211610bde5761016435928311610ba257866109fa612987565b1615610b9957610a10610a0b612987565b612a5a565b86610a19612945565b16956001600160601b0360a01b9687600154161760015587610a3961295b565b1687600254161760025587610a4c612987565b1687600354161760035587610a5f612971565b16876004541617600455600a55600b55600c55600d55600e546001600160401b0360801b610a8b61299d565b60801b16908242169077ffffffffffffffff0000000000000000ffffffffffffffff191617179283600e5562ff000019601454166014556101843585811681036103da5760158054610100600160a81b03191660089290921b610100600160a81b03169190911790556101a43585811691908290036103da5760055416176005556101c435600655610b1b612945565b92610b2461295b565b94610b2d612987565b610b35612971565b9460a435918383168093036103da577f628fe14be05ce7103d3827f5399adf4031838c822d503e405570022ee181b3bb9560a09585948594856040519b168b5260208b015260408a015260c43560608a015260801c166080880152169616941692a4005b610a1033612a5a565b60405162461bcd60e51b81526020600482015260146024820152730e4caeec2e4c840e4c2e8ca40e8dede40d0d2ced60631b6044820152606490fd5b60405162461bcd60e51b81526020600482015260146024820152730c8d2e6e0eae8ca40cccaca40e8dede40d0d2ced60631b6044820152606490fd5b60405162461bcd60e51b815260206004820152600c60248201526b0cccaca40e8dede40d0d2ced60a31b6044820152606490fd5b50818111156109d5565b60405162461bcd60e51b815260206004820152600c60248201526b0cccaca40dad2e6dac2e8c6d60a31b6044820152606490fd5b60405162461bcd60e51b815260206004820152600c60248201526b62616420646561646c696e6560a01b6044820152606490fd5b60405162461bcd60e51b81526020600482015260126024820152711e995c9bc8199959481c9958da5c1a595b9d60721b6044820152606490fd5b60405162461bcd60e51b81526020600482015260096024820152683d32b9379030b2323960b91b6044820152606490fd5b5080610d3561295b565b161515610979565b60405162dc149f60e41b8152600490fd5b346103da576020806003193601126103da576004356001600160401b0381116103da57610d7f9036906004016125a2565b6001546001600160a01b031692919033849003610ecc576014549360ff8560101c166007811015610255576002036103aa57610dba826127bd565b610dc76040519182612782565b8281528481019036848601116103da57838583376000868583010152519020604051610dfd81610df6816126bd565b0382612782565b85815191012003610eba577fe3053523a3a35835db28369b20a103b8fe2f7d12c0a6b61b8c23dfe4d5baed6560ff93600185198816179384601455610e4d60405192839289845289840191612924565b0390a260081c1680610eb2575b610e6057005b620400017f21c3fb4135c9fa99b642787bdf5e79b3e822f2f5ff6b4f832a29a4be29c700bf9262ff00ff19161760145560135460405191829160408352610ea9604084016126bd565b918301520390a1005b506001610e5a565b6040516387cf120760e01b8152600490fd5b6040516386efbb5560e01b8152600490fd5b60003660031901126103da576001546001600160a01b031633819003610ecc5760145460ff8160101c166007811015610255576103aa57341561100057600a549061271090813402923484048303610fea57820191828111610fea578215610fd457620100006040937fcd909ec339185c4598a4096e174308fbdf136d117f230960f873a2f2e81f63af950492610f7584346127b0565b928460075583600855610f8a600c54866128d5565b04600955600e80546fffffffffffffffff0000000000000000191642871b6fffffffffffffffff00000000000000001617905562ff000019161760145582519182526020820152a2005b634e487b7160e01b600052601260045260246000fd5b634e487b7160e01b600052601160045260246000fd5b604051630bba69fb60e01b8152600490fd5b346103da5760003660031901126103da5760006103406040516110348161274b565b8281528260208201528260408201528260608201528260808201528260a08201528260c08201528260e08201528261010082015282610120820152826101408201528261016082015282610180820152826101a0820152826101c0820152826101e0820152826102008201528261022082015282610240820152826102608201526060610280820152826102a082015260606102c0820152826102e0820152826103008201528261032082015201526040516110ef8161274b565b60018060a01b0360015416815260018060a01b0360025416602082015260018060a01b0360035416604082015260018060a01b0360045416606082015260018060a01b0360055416608082015260065460a082015260075460c082015260085460e0820152600954610100820152600a54610120820152600b54610140820152600c54610160820152600d54610180820152600e546001600160401b0381166101a08301526001600160401b038160401c166101c08301526001600160401b038160801c166101e083015260c01c61020082015260ff600f5460018060a01b038116610220840152818160a01c16151561024084015260a81c16151561026082015260405161120181610df681612609565b6102808201526011546102a082015260405161122081610df6816126bd565b6102c08201526013546102e082015260145460ff8116151561030083015260ff8160081c161515610320830152600760ff8260101c1610156102555760ff9060101c1661034082015260405180916020825260018060a01b03815116602083015260018060a01b03602082015116604083015260018060a01b03604082015116606083015260018060a01b03606082015116608083015260018060a01b0360808201511660a083015260a081015160c083015260c081015160e083015260e08101516101008301526101008101516101208301526101208101516101408301526101408101516101608301526101608101516101808301526101808101516101a08301526001600160401b036101a0820151166101c08301526001600160401b036101c0820151166101e08301526001600160401b036101e0820151166102008301526001600160401b036102008201511661022083015260018060a01b0361022082015116610240830152610240810151151561026083015261026081015115156102808301526114266102808201516103406113f46113d061036093846102a0890152610380880190612555565b6102a08601516102c08801526102c0860151601f19888303016102e0890152612555565b936102e08101516103008701526103008101511515610320870152610320810151151582870152015190840190612595565b0390f35b346103da5760003660031901126103da5760ff60145460101c1660078110156102555760041480611463575b6020906040519015158152f35b506007541515611456565b346103da5760003660031901126103da5760155460405160089190911c6001600160a01b03168152602090f35b346103da5760003660031901126103da576114b46129df565b60145460ff8160101c166007811015610255576003036103aa57600e5460c01c42106116cb57600f5460ff8160a01c16806116be575b6109055760018060a01b0391600754916009549060006007558480600154169116146000146115f957505060206115457fd7dee2702d63ad89917b6a4da9981c90c4d24f8c2bdfd64c604ecae57d8d065192600854906127a3565b9260006008556206000062ff000019601454161760145561157a60008080808886600154165af16115746127d8565b50612899565b6001541692837faab9115643ea215a7033c875b90bea2944862403f31d64dd739f7c380f3ae039604051806115da81606090602081526016602082015275636f756e74657270617274795f6469646e745f70617960501b60408201520190565b0390a2604051908152a25b6001600080516020612ac283398151915255005b926205000061162c602093957f7084f5476618d8e60b11ef0d7d3f06914655adb8793e28ff7f018d4c76d505d5956127a3565b9462ff000019161760145561164f60008080808886600254165af16108436127d8565b6002541692837faab9115643ea215a7033c875b90bea2944862403f31d64dd739f7c380f3ae039604051806116af81606090602081526016602082015275636f756e74657270617274795f6469646e745f70617960501b60408201520190565b0390a2604051908152a26115e5565b5060ff8160a81c166114ea565b604051630e62333360e01b8152600490fd5b346103da5760203660031901126103da576004356001600160a01b03811681036103da576117096129b3565b60158054610100600160a81b03191660089290921b610100600160a81b0316919091179055005b346103da5760003660031901126103da576000546040516001600160a01b039091168152602090f35b346103da5760203660031901126103da576004356001600160a01b038116908190036103da576117876129b3565b6001600160601b0360a01b6005541617600555600080f35b346103da5760003660031901126103da576117b86129b3565b600080546001600160a01b0319811682556001600160a01b03167f8be0079c531659141344cd1fd0a4f28419497f9722a3daafe3b4186f6b6457e08280a3005b346103da5760003660031901126103da57608060018060a01b038060015416908060025416908060035416906004541691604051938452602084015260408301526060820152f35b60003660031901126103da57600154336001600160a01b039182161490811580611a0e575b6119fc5781156119c65760ff60145460101c16600781101561025557600181141590816119ba575b506103aa575b8060035416156109265760025416331460001461199e576203f4804201804211610fea576001600160401b0316905b1561197d576008546009541161196b57600f805460ff60a01b1916600160a01b1790555b336001600160601b0360a01b600f541617600f55600e546001600160401b0360c01b8260c01b169060018060c01b031617600e556203000062ff00001960145416176014556001600160401b03600954916040519283521660208201527f69aed8038ad9fbfc8218ef9a586e5ce663a88a05c8dcea0ac3560acacfc198c760403392a2005b60405163c4bdc54760e01b8152600490fd5b600954341061196b57600f805460ff60a81b1916600160a81b1790556118e6565b6202a3004201804211610fea576001600160401b0316906118c2565b6002915014158361188d565b806002541633036118935760ff60145460101c1660078110156102555760021461189357604051634291db1560e11b8152600490fd5b604051630eebd6cd60e21b8152600490fd5b508060025416331415611865565b346103da5760003660031901126103da57600280546001600160a01b039190821633036103c857611a4b6129df565b6014549160ff8360101c166007811015610255576004036103aa5760075492600854906127109062050000611a98611a9184611a89600b548b6128d5565b0480966127a3565b94886127b0565b916000600755600060085562ff000019161760145560008080808688600454165af1611ac26127d8565b50156121d15783600454166040519384527f3e3d11fed2579ab23676d30f4893a503a2a74a2d3610026a21a83c39e2a85e2e608060209560408782015260156040820152746e6f726d616c5f636f6d706c6574696f6e5f66656560581b6060820152a2600080808084888a54165af1611b396127d8565b501561219a577f7084f5476618d8e60b11ef0d7d3f06914655adb8793e28ff7f018d4c76d505d5838587541692604051908152a282600554169460065486151580612191575b611b97576001600080516020612ac283398151915255005b670de0b6b3a764000092611bb1611bb793600d54906128d5565b046128d5565b04938415908115611bc9575b806115e5565b60155460081c841615611e80575050604051611be481612767565b838152818101906040368337604051611bfc81612767565b858152838101906040368337846001928760015416611c1a86612a27565b5287895416611c2886612a4a565b5289611c3384612a27565b5289611c3e84612a4a565b528760155460081c1695604051948386019663b8dd625f60e01b88526084870190606060248901525180915260a48701929060005b8c828210611e6a5750505050836023199586888503016044890152519283815201929160005b818110611e55575050505092611ce7604060009795947032b9b1b937bbafb1b7b6b83632ba34b7b760791b8998969586868b9803938401606488015260118152015289810184520182612782565b51925af1611cf36127d8565b9015611e0357808280611d0b93518301019101612a0f565b15611dbd575080611dae916001541692604051937f21a82678daa5235b7b5de669fdf9599453d3d885cee0826e92636d747419689c8580611d74898499608091815260406020820152600c60408201526b189d5e595c97dc995dd85c9960a21b60608201520190565b0390a254169260405191829182608091815260406020820152600d60408201526c1d995b991bdc97dc995dd85c99609a1b60608201520190565b0390a25b808080808080611bc3565b60009350600080516020612aa283398151915292506060915060126040519180835282015271191a5cdd1c9a589d5d1bdc97d9985a5b195960721b6040820152a2611db2565b5060009350600080516020612aa28339815191529250606091506017604051918083528201527f6469737472696275746f725f63616c6c5f6661696c65640000000000000000006040820152a2611db2565b835185528a9594850194909301928201611c99565b83511685528b9694850194909201918301611c73565b8360009594955416918660011b9087820486141715610fea57604051636eb1769f60e11b8152600481018490523060248201528481604481865afa9081156120a157600091612164575b5010612118576001546040516323b872dd60e01b8082526001600160a01b0385811660048401529288169092166024820152604481018890529184836064816000855af19384156120a157889486946000916120fb575b50156120ad5787600154167f21a82678daa5235b7b5de669fdf9599453d3d885cee0826e92636d747419689c60405180611f828982608091815260406020820152600c60408201526b189d5e595c97dc995dd85c9960a21b60608201520190565b0390a25b86546040519384526001600160a01b0391821660048501528816166024830152604482019390935291829060649082906000905af19182156120a157600092612074575b50501561202e57546040805193845260208401819052600d908401526c1d995b991bdc97dc995dd85c99609a1b606084015216907f21a82678daa5235b7b5de669fdf9599453d3d885cee0826e92636d747419689c9080608081015b0390a2611db2565b9091505416600080516020612aa2833981519152604051806120268160609060208152600f60208201526e1d1c985b9cd9995c97d9985a5b1959608a1b60408201520190565b6120939250803d1061209a575b61208b8183612782565b810190612a0f565b8480611fca565b503d612081565b6040513d6000823e3d90fd5b8760015416600080516020612aa2833981519152604051806120f38160609060208152600f60208201526e1d1c985b9cd9995c97d9985a5b1959608a1b60408201520190565b0390a2611f86565b6121129150853d871161209a5761208b8183612782565b8a611f21565b505060009350600080516020612aa283398151915292506060915060166040519180835282015275696e73756666696369656e745f616c6c6f77616e636560501b6040820152a2611db2565b90508481813d831161218a575b61217b8183612782565b810103126103da575188611eca565b503d612171565b50801515611b7f565b60405162461bcd60e51b815260048101849052600f60248201526e1dda5d1a191c985dc819985a5b1959608a1b6044820152606490fd5b60405162461bcd60e51b8152602060048201526012602482015271199959481c185e5b595b9d0819985a5b195960721b6044820152606490fd5b60003660031901126103da576001546001600160a01b039081163314801580612312575b6119fc5760ff60145460101c166007811015610255576003036103aa57600f5491821633146122c557600e5460c01c421161230057156122d75750600f5460ff8160a01c166122c5576008546009541161196b5760ff60a01b1916600160a01b17600f555b6009546040519081527fb5118a8a92771e3e991d5f58972e139b1573725c9eb05b5810b4eb399bc043a360203392a2005b6040516397e7de5760e01b8152600490fd5b60ff8160a81c166122c557600954341061196b5760ff60a81b1916600160a81b17600f55612294565b60405163080532ff60e11b8152600490fd5b50816002541633141561222f565b346103da5760203660031901126103da576123396129b3565b600435600655005b346103da5760003660031901126103da5760ff60145460101c16600781101561025557602090604051908152f35b346103da5760003660031901126103da576123886129b3565b6123906129df565b6003546001600160a01b03908116908115610926576014549160ff8360101c166007811015610255576003036103aa57600f5460ff8160a01c1615908115612546575b50610905577fd7dee2702d63ad89917b6a4da9981c90c4d24f8c2bdfd64c604ecae57d8d0651916020916007549461241160095496600854906127a3565b95620600006124248260011c80936127b0565b926000600755600060085562ff00001916176014554761244883610746848b6127a3565b90818111612521575b505061077460008080808561246b97985af161076e6127d8565b0390a261248660008080808688600454165af16107ed6127d8565b6004546040805193845260208401819052601190840152706c6f7365725f646973707574655f66656560781b6060840152831691608090a26124d660008080808886600154165af16115746127d8565b6040518481527f1a6b239413869eb48f20710812d9dd84bed42640718f72af5517d20dd7b611d7833392a26001541692604051908152a26001600080516020612ac283398151915255005b600080808561253b61246b986108ae6107749885986127b0565b975050505050612451565b60ff915060a81c1615846123d3565b919082519283825260005b848110612581575050826000602080949584010152601f8019910116010190565b602081830181015184830182015201612560565b9060078210156102555752565b9181601f840112156103da578235916001600160401b0383116103da57602083818601950101116103da57565b90600182811c921680156125ff575b60208310146125e957565b634e487b7160e01b600052602260045260246000fd5b91607f16916125de565b60105460009291612619826125cf565b80825291602090600190818116908115612698575060011461263c575b50505050565b9293945060106000527f1b6847dc741a1b0cd08d278845f9d819d87b734759afb55fe2de5cb82a9ae672926000935b858510612685575050506020925001019038808080612636565b805485850184015293820193810161266b565b92505050602093945060ff929192191683830152151560051b01019038808080612636565b601254600092916126cd826125cf565b8082529160209060019081811690811561269857506001146126ef5750505050565b9293945060126000527fbb8a6a4669ba250d26cd7a459eca9d215f8307e33aebe50379bc5a3617ec3444926000935b858510612738575050506020925001019038808080612636565b805485850184015293820193810161271e565b61036081019081106001600160401b0382111761036357604052565b606081019081106001600160401b0382111761036357604052565b90601f801991011681019081106001600160401b0382111761036357604052565b91908201809211610fea57565b91908203918211610fea57565b6001600160401b03811161036357601f01601f191660200190565b3d15612803573d906127e9826127bd565b916127f76040519384612782565b82523d6000602084013e565b606090565b1561280f57565b60405162461bcd60e51b8152602060048201526016602482015275185c989a5d195c881c185e5b595b9d0819985a5b195960521b6044820152606490fd5b1561285457565b60405162461bcd60e51b815260206004820152601c60248201527f66656520726563697069656e74207061796d656e74206661696c6564000000006044820152606490fd5b156128a057565b60405162461bcd60e51b815260206004820152600d60248201526c1c99599d5b990819985a5b1959609a1b6044820152606490fd5b81810292918115918404141715610fea57565b156128ef57565b60405162461bcd60e51b815260206004820152600d60248201526c1c185e5bdd5d0819985a5b1959609a1b6044820152606490fd5b908060209392818452848401376000828201840152601f01601f1916010190565b6004356001600160a01b03811681036103da5790565b6024356001600160a01b03811681036103da5790565b6064356001600160a01b03811681036103da5790565b6044356001600160a01b03811681036103da5790565b60e4356001600160401b03811681036103da5790565b6000546001600160a01b031633036129c757565b60405163118cdaa760e01b8152336004820152602490fd5b600080516020612ac283398151915260028154146129fd5760029055565b604051633ee5aeb560e01b8152600490fd5b908160209103126103da575180151581036103da5790565b805115612a345760200190565b634e487b7160e01b600052603260045260246000fd5b805160011015612a345760400190565b600080546001600160a01b039283166001600160a01b03198216811783559216907f8be0079c531659141344cd1fd0a4f28419497f9722a3daafe3b4186f6b6457e09080a356fe3e2b10137abf66c99b4df38a02ffc048e5aa72e1ddf22de80642e697bf64197d9b779b17422d0df92223018b32b4d1fa46e071723d6817e2486d003becc55f00a2646970667358221220891adb722770dbeb8be53a22346d5777236f0ff027d3e2e1179be10799fcfbed64736f6c63430008180033","linkReferences":{}},"methodIdentifiers":{"approve(string)":"b67b7163","deliver(string,bytes32)":"fe961ae2","escrowInfo()":"f3d25904","fund()":"b60d4288","getAllInfo()":"b18e15bd","getState()":"1865c57d","initialize((address,address,address,address,uint256,address,uint256,uint64,uint256,uint256,uint256,uint256,address,address,uint256))":"ddd0df6d","initiateDispute()":"4acc296f","isReleasable()":"ad9bdebb","owner()":"8da5cb5b","participants()":"6c4470fb","payDisputeFee()":"394ff3eb","renounceOwnership()":"715018a6","resolveDisputeByDefault()":"ac759f16","resolveToBuyer()":"102df91d","resolveToVendor()":"ed60e20b","rewardDistributor()":"acc2166a","setRewardDistributor(address)":"a1809b95","setRewardRatePer1e18(uint256)":"1f7cb13b","setRewardToken(address)":"8aee8127","transferOwnership(address)":"f2fde38b","withdraw()":"3ccfd60b"},"id":39}