{"abi":[{"type":"constructor","inputs":[{"name":"_implementation","type":"address","internalType":"address"}],"stateMutability":"nonpayable"},{"type":"function","name":"createEscrow","inputs":[{"name":"jobId","type":"bytes32","internalType":"bytes32"},{"name":"buyer","type":"address","internalType":"address"},{"name":"seller","type":"address","internalType":"address"},{"name":"arbiter","type":"address","internalType":"address"},{"name":"feeRecipient","type":"address","internalType":"address"},{"name":"feeBps","type":"uint256","internalType":"uint256"},{"name":"paymentToken","type":"address","internalType":"address"},{"name":"amountWei","type":"uint256","internalType":"uint256"},{"name":"deadline","type":"uint64","internalType":"uint64"},{"name":"buyerFeeBps","type":"uint256","internalType":"uint256"},{"name":"vendorFeeBps","type":"uint256","internalType":"uint256"},{"name":"disputeFeeBps","type":"uint256","internalType":"uint256"},{"name":"rewardRateBps","type":"uint256","internalType":"uint256"}],"outputs":[{"name":"escrow","type":"address","internalType":"address"}],"stateMutability":"nonpayable"},{"type":"function","name":"createEscrowDeterministic","inputs":[{"name":"jobId","type":"bytes32","internalType":"bytes32"},{"name":"buyer","type":"address","internalType":"address"},{"name":"seller","type":"address","internalType":"address"},{"name":"arbiter","type":"address","internalType":"address"},{"name":"feeRecipient","type":"address","internalType":"address"},{"name":"feeBps","type":"uint256","internalType":"uint256"},{"name":"paymentToken","type":"address","internalType":"address"},{"name":"amountWei","type":"uint256","internalType":"uint256"},{"name":"deadline","type":"uint64","internalType":"uint64"},{"name":"buyerFeeBps","type":"uint256","internalType":"uint256"},{"name":"vendorFeeBps","type":"uint256","internalType":"uint256"},{"name":"disputeFeeBps","type":"uint256","internalType":"uint256"},{"name":"rewardRateBps","type":"uint256","internalType":"uint256"},{"name":"salt","type":"bytes32","internalType":"bytes32"}],"outputs":[{"name":"escrow","type":"address","internalType":"address"}],"stateMutability":"nonpayable"},{"type":"function","name":"implementation","inputs":[],"outputs":[{"name":"","type":"address","internalType":"address"}],"stateMutability":"view"},{"type":"function","name":"isEscrowCreated","inputs":[{"name":"","type":"address","internalType":"address"}],"outputs":[{"name":"","type":"bool","internalType":"bool"}],"stateMutability":"view"},{"type":"function","name":"owner","inputs":[],"outputs":[{"name":"","type":"address","internalType":"address"}],"stateMutability":"view"},{"type":"function","name":"predictEscrow","inputs":[{"name":"salt","type":"bytes32","internalType":"bytes32"}],"outputs":[{"name":"predicted","type":"address","internalType":"address"}],"stateMutability":"view"},{"type":"function","name":"rewardDistributor","inputs":[],"outputs":[{"name":"","type":"address","internalType":"address"}],"stateMutability":"view"},{"type":"function","name":"rewardRatePer1e18","inputs":[],"outputs":[{"name":"","type":"uint256","internalType":"uint256"}],"stateMutability":"view"},{"type":"function","name":"rewardToken","inputs":[],"outputs":[{"name":"","type":"address","internalType":"address"}],"stateMutability":"view"},{"type":"function","name":"setRewardDistributor","inputs":[{"name":"_rewardDistributor","type":"address","internalType":"address"}],"outputs":[],"stateMutability":"nonpayable"},{"type":"function","name":"setRewardRatePer1e18","inputs":[{"name":"_rewardRatePer1e18","type":"uint256","internalType":"uint256"}],"outputs":[],"stateMutability":"nonpayable"},{"type":"function","name":"setRewardToken","inputs":[{"name":"_rewardToken","type":"address","internalType":"address"}],"outputs":[],"stateMutability":"nonpayable"},{"type":"function","name":"transferOwnership","inputs":[{"name":"newOwner","type":"address","internalType":"address"}],"outputs":[],"stateMutability":"nonpayable"},{"type":"event","name":"EscrowCreated","inputs":[{"name":"jobId","type":"bytes32","indexed":true,"internalType":"bytes32"},{"name":"escrow","type":"address","indexed":true,"internalType":"address"},{"name":"buyer","type":"address","indexed":true,"internalType":"address"},{"name":"seller","type":"address","indexed":false,"internalType":"address"},{"name":"arbiter","type":"address","indexed":false,"internalType":"address"},{"name":"feeRecipient","type":"address","indexed":false,"internalType":"address"},{"name":"feeBps","type":"uint256","indexed":false,"internalType":"uint256"},{"name":"paymentToken","type":"address","indexed":false,"internalType":"address"},{"name":"amountWei","type":"uint256","indexed":false,"internalType":"uint256"},{"name":"deterministic","type":"bool","indexed":false,"internalType":"bool"},{"name":"deadline","type":"uint64","indexed":false,"internalType":"uint64"},{"name":"buyerFeeBps","type":"uint256","indexed":false,"internalType":"uint256"},{"name":"vendorFeeBps","type":"uint256","indexed":false,"internalType":"uint256"},{"name":"disputeFeeBps","type":"uint256","indexed":false,"internalType":"uint256"},{"name":"rewardRateBps","type":"uint256","indexed":false,"internalType":"uint256"}],"anonymous":false},{"type":"event","name":"OwnershipTransferred","inputs":[{"name":"previousOwner","type":"address","indexed":true,"internalType":"address"},{"name":"newOwner","type":"address","indexed":true,"internalType":"address"}],"anonymous":false},{"type":"event","name":"RewardDistributorSet","inputs":[{"name":"rewardDistributor","type":"address","indexed":true,"internalType":"address"}],"anonymous":false},{"type":"event","name":"RewardRateSet","inputs":[{"name":"rewardRatePer1e18","type":"uint256","indexed":false,"internalType":"uint256"}],"anonymous":false},{"type":"event","name":"RewardTokenSet","inputs":[{"name":"rewardToken","type":"address","indexed":true,"internalType":"address"}],"anonymous":false},{"type":"error","name":"FailedDeployment","inputs":[]},{"type":"error","name":"InsufficientBalance","inputs":[{"name":"balance","type":"uint256","internalType":"uint256"},{"name":"needed","type":"uint256","internalType":"uint256"}]},{"type":"error","name":"NotOwner","inputs":[]}],"bytecode":{"object":"0x60a0346100dc57601f610c5438819003918201601f19168301916001600160401b038311848410176100e1578084926020946040528339810103126100dc57516001600160a01b0381168082036100dc571561009757608052600080546001600160a01b03191633179055604051610b5c90816100f882396080518181816102f101528181610366015281816105f401526106a00152f35b60405162461bcd60e51b815260206004820152601360248201527f7a65726f20696d706c656d656e746174696f6e000000000000000000000000006044820152606490fd5b600080fd5b634e487b7160e01b600052604160045260246000fdfe608080604052600436101561001357600080fd5b600090813560e01c9081630e3e92931461093e575080631f7cb13b146108e557806320a7e3631461065a578063290d3ada146105bf578063346a7aa7146103205780635c60da1b146102db5780637ec81d08146102bd5780638aee81271461024e5780638da5cb5b14610227578063a1809b95146101b8578063acc2166a1461018f578063f2fde38b146100db5763f7c618c1146100b057600080fd5b346100d857806003193601126100d8576002546040516001600160a01b039091168152602090f35b80fd5b50346100d85760203660031901126100d8576100f561097e565b8154906001600160a01b03808316913383900361017d5716918215610149576001600160a01b031916821783557f8be0079c531659141344cd1fd0a4f28419497f9722a3daafe3b4186f6b6457e08380a380f35b60405162461bcd60e51b815260206004820152600c60248201526b7a65726f206164647265737360a01b6044820152606490fd5b6040516330cd747160e01b8152600490fd5b50346100d857806003193601126100d8576001546040516001600160a01b039091168152602090f35b50346100d85760203660031901126100d8576101d261097e565b81546001600160a01b0391908216330361017d5716806bffffffffffffffffffffffff60a01b60015416176001557f075c02c513a415bd4ff5976f8aa6fc5767d2183daca9ec00ab71ce78e8bf81588280a280f35b50346100d857806003193601126100d857546040516001600160a01b039091168152602090f35b50346100d85760203660031901126100d85761026861097e565b81546001600160a01b0391908216330361017d5716806bffffffffffffffffffffffff60a01b60025416176002557f2d6b04df9b7d358407d1a014f1114b064add34c19d63d395db155a7e533e967a8280a280f35b50346100d857806003193601126100d8576020600354604051908152f35b50346100d857806003193601126100d8576040517f00000000000000000000000000000000000000000000000000000000000000006001600160a01b03168152602090f35b50346100d8576101a03660031901126100d85761033b610999565b6103436109af565b61034b6109c5565b916103546109db565b61035c6109f1565b610364610a07565b7f0000000000000000000000000000000000000000000000000000000000000000608881901c62ffffff16763d602d80600a3d3981f3363d3d373d3d3d363d7300000017885260781b6e5af43d82803e903d91602b57fd5bf317602052916001600160a01b036037600989f0169586156105ad576001546002546003546040519290916001600160a01b0390811691166103fd84610a1f565b6001600160a01b0389811685528a811660208601528581166040860152868116606086015260a4356080860152871660a085015260e43560c085015267ffffffffffffffff881660e0850152610124356101008501526101443561012085015261016435610140850152610184356101608501526101808401526101a08301526101c082015288883b156100d85760405163ddd0df6d60e01b815291829081906104aa9060048301610a66565b0381838c5af180156105a25761058a575b50868852600460208181526040998a9020805460ff1916600117905589516001600160a01b039889168152928816838201529287169882019890985260a4356060820152918516608083015260e43560a0830152600060c083015267ffffffffffffffff90921660e0820152610124356101008201526101443561012082015261016435610140820152610184356101608201529094929091169183919035907f3526cfc798ab7e9e6471c8b7b0e0c90ecf1f141436bd7def1ea46ffb2d9213fa9061018090a4604051908152f35b6105948991610a52565b61059e57386104bb565b8780fd5b6040513d8b823e3d90fd5b60405163b06ebf3d60e01b8152600490fd5b50346100d85760203660031901126100d85760206040513060388201526f5af43d82803e903d91602b57fd5bf3ff60248201527f00000000000000000000000000000000000000000000000000000000000000006014820152733d602d80600a3d3981f3363d3d373d3d3d363d73815260043560588201526037600c82012060788201526055604360018060a01b0392012016604051908152f35b50346100d8576101c03660031901126100d857610675610999565b61067d6109af565b6106856109c5565b9161068e6109db565b6106966109f1565b61069e610a07565b7f0000000000000000000000000000000000000000000000000000000000000000608881901c62ffffff16763d602d80600a3d3981f3363d3d373d3d3d363d7300000017885260781b6e5af43d82803e903d91602b57fd5bf317602052916001600160a01b036101a435603760098af5169586156105ad576001546002546003546040519290916001600160a01b03908116911661073b84610a1f565b6001600160a01b0389811685528a811660208601528581166040860152868116606086015260a4356080860152871660a085015260e43560c085015267ffffffffffffffff881660e0850152610124356101008501526101443561012085015261016435610140850152610184356101608501526101808401526101a08301526101c082015288883b156100d85760405163ddd0df6d60e01b815291829081906107e89060048301610a66565b0381838c5af180156105a25791604060209a8a9897959367ffffffffffffffff97956108d6575b5088815260048c5220600160ff198254161790556040519760018060a01b0316885260018060a01b03168988015260018060a01b0316604087015260a435606087015260018060a01b0316608086015260e43560a0860152600160c08601521660e08401526101243561010084015261014435610120840152610164356101408401526101843561016084015260018060a01b0316917f3526cfc798ab7e9e6471c8b7b0e0c90ecf1f141436bd7def1ea46ffb2d9213fa61018060043592a4604051908152f35b6108df90610a52565b3861080f565b50346100d85760203660031901126100d8578054600435906001600160a01b0316330361017d576020817f8cbfafc8e0d9c5c81401c4b9c6e7d201198adc7eb8f8f1556c195ecd4c0a0e7b92600355604051908152a180f35b90503461097a57602036600319011261097a5760209160ff906040906001600160a01b0361096a61097e565b1681526004855220541615158152f35b5080fd5b600435906001600160a01b038216820361099457565b600080fd5b602435906001600160a01b038216820361099457565b604435906001600160a01b038216820361099457565b606435906001600160a01b038216820361099457565b608435906001600160a01b038216820361099457565b60c435906001600160a01b038216820361099457565b610104359067ffffffffffffffff8216820361099457565b6101e0810190811067ffffffffffffffff821117610a3c57604052565b634e487b7160e01b600052604160045260246000fd5b67ffffffffffffffff8111610a3c57604052565b9190916101e081019260018060a01b03808251168352806020830151166020840152806040830151166040840152806060830151166060840152608082015160808401528060a08301511660a084015260c082015160c084015267ffffffffffffffff60e08301511660e08401526101008083015190840152610120808301519084015261014080830151908401526101608083015190840152610180818184015116908401526101a0908183015116908301526101c08091015191015256fea2646970667358221220d94bd8dc834ddfc636b38c78d8fb2107f91b10ab3647a22bded1ba9cfc395ae264736f6c63430008180033","linkReferences":{}},"methodIdentifiers":{"createEscrow(bytes32,address,address,address,address,uint256,address,uint256,uint64,uint256,uint256,uint256,uint256)":"346a7aa7","createEscrowDeterministic(bytes32,address,address,address,address,uint256,address,uint256,uint64,uint256,uint256,uint256,uint256,bytes32)":"20a7e363","implementation()":"5c60da1b","isEscrowCreated(address)":"0e3e9293","owner()":"8da5cb5b","predictEscrow(bytes32)":"290d3ada","rewardDistributor()":"acc2166a","rewardRatePer1e18()":"7ec81d08","rewardToken()":"f7c618c1","setRewardDistributor(address)":"a1809b95","setRewardRatePer1e18(uint256)":"1f7cb13b","setRewardToken(address)":"8aee8127","transferOwnership(address)":"f2fde38b"},"id":40}