{"abi":[{"type":"constructor","inputs":[{"name":"_owner","type":"address","internalType":"address"},{"name":"_rewardToken","type":"address","internalType":"address"},{"name":"_rewardSource","type":"address","internalType":"address"}],"stateMutability":"nonpayable"},{"type":"function","name":"authorizedCallers","inputs":[{"name":"","type":"address","internalType":"address"}],"outputs":[{"name":"","type":"bool","internalType":"bool"}],"stateMutability":"view"},{"type":"function","name":"authorizedFactories","inputs":[{"name":"","type":"address","internalType":"address"}],"outputs":[{"name":"","type":"bool","internalType":"bool"}],"stateMutability":"view"},{"type":"function","name":"authorizedFactoryList","inputs":[{"name":"","type":"uint256","internalType":"uint256"}],"outputs":[{"name":"","type":"address","internalType":"address"}],"stateMutability":"view"},{"type":"function","name":"distributeRewards","inputs":[{"name":"_recipients","type":"address[]","internalType":"address[]"},{"name":"_amounts","type":"uint256[]","internalType":"uint256[]"},{"name":"_reason","type":"string","internalType":"string"}],"outputs":[{"name":"success","type":"bool","internalType":"bool"}],"stateMutability":"nonpayable"},{"type":"function","name":"distributeSingleReward","inputs":[{"name":"_recipient","type":"address","internalType":"address"},{"name":"_amount","type":"uint256","internalType":"uint256"},{"name":"_reason","type":"string","internalType":"string"}],"outputs":[{"name":"","type":"bool","internalType":"bool"}],"stateMutability":"nonpayable"},{"type":"function","name":"getAuthorizedFactories","inputs":[],"outputs":[{"name":"","type":"address[]","internalType":"address[]"}],"stateMutability":"view"},{"type":"function","name":"getAuthorizedFactoryCount","inputs":[],"outputs":[{"name":"","type":"uint256","internalType":"uint256"}],"stateMutability":"view"},{"type":"function","name":"getCurrentAllowance","inputs":[],"outputs":[{"name":"","type":"uint256","internalType":"uint256"}],"stateMutability":"view"},{"type":"function","name":"getSourceBalance","inputs":[],"outputs":[{"name":"","type":"uint256","internalType":"uint256"}],"stateMutability":"view"},{"type":"function","name":"isAuthorized","inputs":[{"name":"_caller","type":"address","internalType":"address"}],"outputs":[{"name":"","type":"bool","internalType":"bool"}],"stateMutability":"view"},{"type":"function","name":"isAuthorizedByFactory","inputs":[{"name":"_factory","type":"address","internalType":"address"}],"outputs":[{"name":"","type":"bool","internalType":"bool"}],"stateMutability":"view"},{"type":"function","name":"isEscrowFromFactories","inputs":[{"name":"_escrow","type":"address","internalType":"address"},{"name":"_factories","type":"address[]","internalType":"address[]"}],"outputs":[{"name":"","type":"bool","internalType":"bool"}],"stateMutability":"view"},{"type":"function","name":"openMode","inputs":[],"outputs":[{"name":"","type":"bool","internalType":"bool"}],"stateMutability":"view"},{"type":"function","name":"owner","inputs":[],"outputs":[{"name":"","type":"address","internalType":"address"}],"stateMutability":"view"},{"type":"function","name":"renounceOwnership","inputs":[],"outputs":[],"stateMutability":"nonpayable"},{"type":"function","name":"rewardSource","inputs":[],"outputs":[{"name":"","type":"address","internalType":"address"}],"stateMutability":"view"},{"type":"function","name":"rewardToken","inputs":[],"outputs":[{"name":"","type":"address","internalType":"address"}],"stateMutability":"view"},{"type":"function","name":"setAuthorizedCaller","inputs":[{"name":"_caller","type":"address","internalType":"address"},{"name":"_authorized","type":"bool","internalType":"bool"}],"outputs":[],"stateMutability":"nonpayable"},{"type":"function","name":"setAuthorizedCallers","inputs":[{"name":"_callers","type":"address[]","internalType":"address[]"},{"name":"_authorized","type":"bool","internalType":"bool"}],"outputs":[],"stateMutability":"nonpayable"},{"type":"function","name":"setAuthorizedFactories","inputs":[{"name":"_factories","type":"address[]","internalType":"address[]"},{"name":"_authorized","type":"bool","internalType":"bool"}],"outputs":[],"stateMutability":"nonpayable"},{"type":"function","name":"setAuthorizedFactory","inputs":[{"name":"_factory","type":"address","internalType":"address"},{"name":"_authorized","type":"bool","internalType":"bool"}],"outputs":[],"stateMutability":"nonpayable"},{"type":"function","name":"setOpenMode","inputs":[{"name":"_open","type":"bool","internalType":"bool"}],"outputs":[],"stateMutability":"nonpayable"},{"type":"function","name":"setRewardSource","inputs":[{"name":"_rewardSource","type":"address","internalType":"address"}],"outputs":[],"stateMutability":"nonpayable"},{"type":"function","name":"setRewardToken","inputs":[{"name":"_rewardToken","type":"address","internalType":"address"}],"outputs":[],"stateMutability":"nonpayable"},{"type":"function","name":"transferOwnership","inputs":[{"name":"newOwner","type":"address","internalType":"address"}],"outputs":[],"stateMutability":"nonpayable"},{"type":"event","name":"CallerAuthorized","inputs":[{"name":"caller","type":"address","indexed":true,"internalType":"address"},{"name":"authorized","type":"bool","indexed":false,"internalType":"bool"}],"anonymous":false},{"type":"event","name":"FactoryAuthorized","inputs":[{"name":"factory","type":"address","indexed":true,"internalType":"address"},{"name":"authorized","type":"bool","indexed":false,"internalType":"bool"}],"anonymous":false},{"type":"event","name":"OpenModeSet","inputs":[{"name":"open","type":"bool","indexed":false,"internalType":"bool"}],"anonymous":false},{"type":"event","name":"OwnershipTransferred","inputs":[{"name":"previousOwner","type":"address","indexed":true,"internalType":"address"},{"name":"newOwner","type":"address","indexed":true,"internalType":"address"}],"anonymous":false},{"type":"event","name":"RewardDistributed","inputs":[{"name":"caller","type":"address","indexed":true,"internalType":"address"},{"name":"recipient","type":"address","indexed":true,"internalType":"address"},{"name":"amount","type":"uint256","indexed":false,"internalType":"uint256"},{"name":"reason","type":"string","indexed":false,"internalType":"string"}],"anonymous":false},{"type":"event","name":"RewardFailed","inputs":[{"name":"caller","type":"address","indexed":true,"internalType":"address"},{"name":"recipient","type":"address","indexed":true,"internalType":"address"},{"name":"amount","type":"uint256","indexed":false,"internalType":"uint256"},{"name":"reason","type":"string","indexed":false,"internalType":"string"}],"anonymous":false},{"type":"event","name":"RewardSourceSet","inputs":[{"name":"source","type":"address","indexed":true,"internalType":"address"}],"anonymous":false},{"type":"event","name":"RewardTokenSet","inputs":[{"name":"token","type":"address","indexed":true,"internalType":"address"}],"anonymous":false},{"type":"error","name":"InsufficientAllowance","inputs":[]},{"type":"error","name":"InvalidAddress","inputs":[]},{"type":"error","name":"OwnableInvalidOwner","inputs":[{"name":"owner","type":"address","internalType":"address"}]},{"type":"error","name":"OwnableUnauthorizedAccount","inputs":[{"name":"account","type":"address","internalType":"address"}]},{"type":"error","name":"UnauthorizedCaller","inputs":[]}],"bytecode":{"object":"0x6080346200017657601f620016f338819003918201601f19168301916001600160401b038311848410176200017b5780849260609460405283398101031262000176576200004d8162000191565b620000696040620000616020850162000191565b930162000191565b906001600160a01b039081169081156200015d57600080546001600160a01b031980821685178355604051969094929392839283167f8be0079c531659141344cd1fd0a4f28419497f9722a3daafe3b4186f6b6457e08680a316938415801562000152575b6200014357907f32f03954e9e3ba44f0b075ffe0c3aabcbd5fc37414ef9dab90bb321606263d789291858560015416176001551680936002541617600255604051937f2d6b04df9b7d358407d1a014f1114b064add34c19d63d395db155a7e533e967a8280a280a261154c9081620001a78239f35b63e6c4247b60e01b8652600486fd5b5081811615620000ce565b604051631e4fbdf760e01b815260006004820152602490fd5b600080fd5b634e487b7160e01b600052604160045260246000fd5b51906001600160a01b0382168203620001765756fe608060408181526004918236101561001657600080fd5b600092833560e01c91826303f7a68c14610c6e57508163090263a714610bcb5781631c5a2c0d14610b835781632ccf82a514610b6557816344aac9a714610af7578163453bdf3714610ad1578163454bbd2914610a5b578163536fff6c14610a1d578163595ec080146108c55781635c85c588146106b25781636db236a314610614578163715018a6146105ba57816379a9527c146105245781638aee8127146104a95781638da5cb5b14610481578163904c5e58146103eb5781639cfbc002146103c2578163a7e96ff814610382578163b1d974e51461031f578163b8dd625f14610297578163de11473e14610273578163ecd24a8214610235578163f2fde38b146101aa57508063f7c618c1146101825763fe9fbb801461013857600080fd5b3461017e57602036600319011261017e57602090610154610d58565b9060ff6006541691821561016c575b50519015158152f35b610177919250611429565b9083610163565b5080fd5b503461017e578160031936011261017e5760015490516001600160a01b039091168152602090f35b905034610231576020366003190112610231576101c5610d58565b906101ce6113fd565b6001600160a01b0391821692831561021b57505082546001600160a01b0319811683178455167f8be0079c531659141344cd1fd0a4f28419497f9722a3daafe3b4186f6b6457e08380a380f35b51631e4fbdf760e01b8152908101849052602490fd5b8280fd5b50503461017e57602036600319011261017e5760209160ff9082906001600160a01b03610260610d58565b1681526003855220541690519015158152f35b50503461017e578160031936011261017e5760209060ff6006541690519015158152f35b9050346102315760603660031901126102315767ffffffffffffffff813581811161031b576102c99036908401610cd7565b949092602435838111610231576102e39036908301610cd7565b939092604435918211610318575091610307602097949261030f9694369101610d6e565b949093611028565b90519015158152f35b80fd5b8480fd5b905034610231576020366003190112610231573590811515809203610231577f91750a3806567b3235fdfa9b5d84ff1d123e2da9c6109cac9aa1a09ce4bcc0e59160209161036b6113fd565b60ff196006541660ff83161760065551908152a180f35b828434610318576020366003190112610318578235925483101561031857506103ac602092610dd9565b905491519160018060a01b039160031b1c168152f35b50503461017e578160031936011261017e5760025490516001600160a01b039091168152602090f35b83833461017e578160031936011261017e578051918284549081815260208091019583527f8a35acfbc15ff81a39ae7d344fd709f28e8600b4aa8c65c6b64bfe7fe36bd19b92905b8282106104615761045d868661044b828b0383610e58565b51918291602083526020830190610d9c565b0390f35b83546001600160a01b031687529586019560019384019390910190610433565b50503461017e578160031936011261017e57905490516001600160a01b039091168152602090f35b905034610231576020366003190112610231576104c4610d58565b6104cc6113fd565b6001600160a01b0316918215610517575050600180546001600160a01b031916821790557f2d6b04df9b7d358407d1a014f1114b064add34c19d63d395db155a7e533e967a8280a280f35b5163e6c4247b60e01b8152fd5b50503461017e5761053436610d1c565b90929161053f6113fd565b845b84811061054c578580f35b6001906001600160a01b038061056b610566848a88610e7a565b610e8a565b1688526000805160206114f78339815191526020916003835261059c87898c209060ff801983541691151516179055565b6105aa610566858b89610e7a565b169187518715158152a201610541565b83346103185780600319360112610318576105d36113fd565b80546001600160a01b03198116825581906001600160a01b03167f8be0079c531659141344cd1fd0a4f28419497f9722a3daafe3b4186f6b6457e08280a380f35b9190503461023157826003193601126102315760015460025482516370a0823160e01b81526001600160a01b039182169481019490945260209184916024918391165afa9182156106a8578392610670575b6020838351908152f35b9091506020813d6020116106a0575b8161068c60209383610e58565b810103126102315760209250519038610666565b3d915061067f565b81513d85823e3d90fd5b83833461017e578060031936011261017e576106cc610d58565b906106d5610d0d565b906106de6113fd565b6001600160a01b0383811680865260036020819052838720805486151560ff90811660ff19831617909255929693921685806108bd575b1561079457505050855468010000000000000000811015610781576020939291610759826000805160206114f7833981519152979899600161077795019055610dd9565b90919060018060a01b038084549260031b9316831b921b1916179055565b519015158152a280f35b634e487b7160e01b865260418752602486fd5b909192508495969793941590816108b5575b506107c7575b5050506000805160206114f783398151915291602091610777565b86949296959391955b8754808210156108965785886107e584610dd9565b905490861b1c16146107fa57506001016107d0565b90600097929394959697199182810190811161088357906107598461082161082e94610dd9565b905490881b1c1691610dd9565b8754801561087057916000805160206114f783398151915296979891602096959493019261085b84610dd9565b81939154921b1b19169055555b9181936107ac565b634e487b7160e01b885260318952602488fd5b634e487b7160e01b895260118a52602489fd5b5050506000805160206114f78339815191529395506020929450610868565b9050886107a6565b508015610715565b83833461017e5760031992606036850112610231576108e2610d58565b60443567ffffffffffffffff811161031b579161090760609396929636908301610d6e565b8551979161091489610e26565b60019460018a526020998a96873681840137876109818b519361093685610e26565b600185528285019883368b3761094b82610ffa565b6001600160a01b03909116905260243561096486610ffa565b528c519b8c9a63b8dd625f60e01b8c528b015260648a0190610d9c565b92848985030160248a015251928381520195918b5b818110610a0557505050509183916109b79386809603016044860152611007565b038186305af19283156109fa57926109d25750519015158152f35b610177919250833d85116109f3575b6109eb8183610e58565b810190610e9e565b503d6109e1565b8251903d90823e3d90fd5b835188528d998b995097880197909301928201610996565b50503461017e57602036600319011261017e5760209160ff9082906001600160a01b03610a48610d58565b1681526005855220541690519015158152f35b50503461017e578060031936011261017e577f100c9fd652c7b273c9266f92f22ac2352eb8d7232013ac0439e9066a9227f3696020610a98610d58565b610aa0610d0d565b90610aa96113fd565b6001600160a01b031680865260058352848620805460ff191660ff8415151617905593610777565b50503461017e57602036600319011261017e5760209061030f610af2610d58565b610f7e565b90503461023157602036600319011261023157610b12610d58565b610b1a6113fd565b6001600160a01b0316918215610517575050600280546001600160a01b031916821790557f32f03954e9e3ba44f0b075ffe0c3aabcbd5fc37414ef9dab90bb321606263d788280a280f35b90503461023157826003193601126102315760209250549051908152f35b905034610231578160031936011261023157610b9d610d58565b926024359067ffffffffffffffff8211610318575092610bc561030f92602095369101610cd7565b91610eb6565b50503461017e57610bdb36610d1c565b909291610be66113fd565b845b848110610bf3578580f35b6001906001600160a01b0380610c0d610566848a88610e7a565b1688527f100c9fd652c7b273c9266f92f22ac2352eb8d7232013ac0439e9066a9227f36960209160058352610c5087898c209060ff801983541691151516179055565b610c5e610566858b89610e7a565b169187518715158152a201610be8565b92915034610cd35783600319360112610cd357600154600254636eb1769f60e11b85526001600160a01b039081169285019283523060208085019190915292859290839003604001918391165afa9182156106a8578392610670576020838351908152f35b8380fd5b9181601f84011215610d085782359167ffffffffffffffff8311610d08576020808501948460051b010111610d0857565b600080fd5b602435908115158203610d0857565b6040600319820112610d08576004359067ffffffffffffffff8211610d0857610d4791600401610cd7565b90916024358015158103610d085790565b600435906001600160a01b0382168203610d0857565b9181601f84011215610d085782359167ffffffffffffffff8311610d085760208381860195010111610d0857565b90815180825260208080930193019160005b828110610dbc575050505090565b83516001600160a01b031685529381019392810192600101610dae565b600454811015610e105760046000527f8a35acfbc15ff81a39ae7d344fd709f28e8600b4aa8c65c6b64bfe7fe36bd19b0190600090565b634e487b7160e01b600052603260045260246000fd5b6040810190811067ffffffffffffffff821117610e4257604052565b634e487b7160e01b600052604160045260246000fd5b90601f8019910116810190811067ffffffffffffffff821117610e4257604052565b9190811015610e105760051b0190565b356001600160a01b0381168103610d085790565b90816020910312610d0857518015158103610d085790565b9160005b818110610eca5750505050600090565b6001600160a01b0380610ee1610566848688610e7a565b1660005260206003815260409160ff836000205416610f06575b505050600101610eba565b8060248392610f19610566888a8c610e7a565b16945180958193630e3e929360e01b83528b1660048301525afa918291600093610f5f575b5050610f4c575b8080610efb565b610f565738610f45565b50505050600190565b610f76929350803d106109f3576109eb8183610e58565b903880610f3e565b6001600160a01b031660008181526003602052604090205460ff1615610ff457602060249160405192838092630e3e929360e01b82523360048301525afa60009181610fd3575b50610fd05750600090565b90565b610fed91925060203d6020116109f3576109eb8183610e58565b9038610fc5565b50600090565b805115610e105760200190565b908060209392818452848401376000828201840152601f01601f1916010190565b9490919260ff6006541615806113ed575b6113db578083036113a457821561137057600093845b82811061133b5750600180546002805460408051636eb1769f60e11b81526001600160a01b039283166004820152306024820152949a929990966020969593949293909287908290604490829088165afa908115611330579082916000916112ff575b5010611296575060019a60005b8981106110d55750505050505050505050505090565b8b848888858f8f898f916110ea8a8388610e7a565b3515158061127e575b611106575b5050505050505050016110bf565b89600094939261112b61056683611131958d9e9d8060649d9e9f54169954169a610e7a565b98610e7a565b35905197889687956323b872dd60e01b8752600487015216602485015260448401525af190811561127357600091611256575b50156111de578089897f53513d31e074e68a02af92affe1a3eb31c4ba7c5abd60a8a4a4fd333c67a3b808f948a8f8a6111b18f948c6111ab610566838f976111cb98610e7a565b95610e7a565b35928680519586958652850152169533958301908d611007565b0390a35b90848888858f8f898f916110f8565b809c50836111fb6111f3610566848e87610e7a565b928589610e7a565b359189519283528989840152600f8a8401526e1d1c985b9cd9995c97d9985a5b1959608a1b606084015216907f64b8ea9b1fcb5664cd10a5a11ce5c963d6ab0b8c3215d6358e92e5832b011c9a60803392a38a60009c6111cf565b61126d9150883d8a116109f3576109eb8183610e58565b38611164565b89513d6000823e3d90fd5b508761128e6105668c8489610e7a565b1615156110f3565b9950505050509060009650601694508093508092505194855284015282015275696e73756666696369656e745f616c6c6f77616e636560501b60608201527f64b8ea9b1fcb5664cd10a5a11ce5c963d6ab0b8c3215d6358e92e5832b011c9a60803392a3600090565b809250888092503d8311611329575b6113188183610e58565b81010312610d0857819051386110b2565b503d61130e565b88513d6000823e3d90fd5b94611347868484610e7a565b35810180911161135a579460010161104f565b634e487b7160e01b600052601160045260246000fd5b60405162461bcd60e51b815260206004820152600c60248201526b656d7074792061727261797360a01b6044820152606490fd5b60405162461bcd60e51b815260206004820152600f60248201526e0d8cadccee8d040dad2e6dac2e8c6d608b1b6044820152606490fd5b604051635c427cd960e01b8152600490fd5b506113f733611429565b15611039565b6000546001600160a01b0316330361141157565b60405163118cdaa760e01b8152336004820152602490fd5b60018060a01b0380911690600082600052602091600560205260409060ff604060002054166114ec57600094600491600454965b878110611471575050505050505050600090565b8187602461147e84610dd9565b9190549189519485938492630e3e929360e01b84528a8c85015260031b1c165afa8791816114cd575b506114b6575b5060010161145d565b6114c057386114ad565b5050505050505050600190565b6114e5919250893d8b116109f3576109eb8183610e58565b90386114a7565b505050505060019056fe6b489c12f59a99312ab950fddabe529a090208050382df653584944ea5f78b35a2646970667358221220953cab0e79633b8e593554efd67fa82ad58845294748091ba81b5ada7d37755364736f6c63430008180033","linkReferences":{}},"methodIdentifiers":{"authorizedCallers(address)":"536fff6c","authorizedFactories(address)":"ecd24a82","authorizedFactoryList(uint256)":"a7e96ff8","distributeRewards(address[],uint256[],string)":"b8dd625f","distributeSingleReward(address,uint256,string)":"595ec080","getAuthorizedFactories()":"904c5e58","getAuthorizedFactoryCount()":"2ccf82a5","getCurrentAllowance()":"03f7a68c","getSourceBalance()":"6db236a3","isAuthorized(address)":"fe9fbb80","isAuthorizedByFactory(address)":"453bdf37","isEscrowFromFactories(address,address[])":"1c5a2c0d","openMode()":"de11473e","owner()":"8da5cb5b","renounceOwnership()":"715018a6","rewardSource()":"9cfbc002","rewardToken()":"f7c618c1","setAuthorizedCaller(address,bool)":"454bbd29","setAuthorizedCallers(address[],bool)":"090263a7","setAuthorizedFactories(address[],bool)":"79a9527c","setAuthorizedFactory(address,bool)":"5c85c588","setOpenMode(bool)":"b1d974e5","setRewardSource(address)":"44aac9a7","setRewardToken(address)":"8aee8127","transferOwnership(address)":"f2fde38b"},"id":41}